:020000040800F2
:1000000000500020DD41000865010008291F00089C
:10001000D9410008D9410008D9410008000000007A
:10002000000000000000000000000000DB410008AC
:10003000DB41000800000000DB410008B12300089C
:10004000D9410008D9410008D9410008D941000828
:10005000D9410008D9410008D9410008D941000818
:10006000D9410008D9410008D9410008D941000808
:10007000D9410008D9410008D9410008D9410008F8
:10008000D9410008D9410008D9410008D9410008E8
:10009000D9410008D9410008D9410008651B000872
:1000A000D9410008D9410008D9410008D9410008C8
:1000B000D9410008D9410008D9410008D9410008B8
:1000C000D9410008D9410008D9410008D9410008A8
:1000D000D9410008B5240008D9410008D9410008D9
:1000E000D9410008D9410008D9410008D941000888
:1000F000D9410008D9410008D9410008D941000878
:10010000D9410008D9410008D9410008D941000867
:10011000D9410008D9410008D9410008D941000857
:10012000D9410008D9410008D9410008D941000847
:10013000D9410008D9410008D9410008D941000837
:10014000D9410008D9410008D9410008D941000827
:1001500008B5034801F0D2FDBDE8084001F012BD2A
:10016000F85A000808B503F021FB03F0DFFBBDE8F7
:10017000084000224FF47A71DC2001F021BE00001B
:10018000314AF8B55369314D43F01803536103F018
:1001900075FB03F003FC40F2023003F057FF40F21E
:1001A000033003F053FF4FF4417003F04FFF4FF45F
:1001B000407003F04BFF01F027FF02F095F802F0CA
:1001C0002FF902F035F801F0ABFD01F031FF01F03D
:1001D0005DFB02F0B1F901F0ADFF00F081F800F035
:1001E0009FFB01F0BFFA00F017FB01F0D1FC1848AB
:1001F00002F014FA01F0A4FE6421002240F20B2068
:1002000001F0DEFD01F0B8FCD5F82C1611B1114853
:1002100002F084F8104C114F264602F095F923683D
:10022000642B01D901F052FE41F2883332689A42C0
:1002300005D92B68012B02D0384601F05FFD01F093
:1002400087FF30BFE9E700BF00ED00E02C0700208A
:10025000EC42000851010008781B0020605A000899
:100260002DE9FF41002414274FF01C0801A803F0DA
:10027000C5F90B4D039A01996A60029A094E0A4426
:10028000AA6008FB045007FB0461142224300134E7
:1002900002F0B9F9202CF4D104B0BDE8F08100BF20
:1002A0002C0700209857000810B50A4C41F27C1228
:1002B0000949204602F0A7F92368012B05D041F235
:1002C0007C120649204602F09EF9BDE81040FFF777
:1002D000C7BF00BF2C07002000E40008144300083B
:1002E000FFF7E2BF4F4B2DE9F3471C7805460E465A
:1002F000002C3BD130BB01294B4C27D100F0C0FB77
:1003000002AD25F8020D05224849204602F07BF98E
:100310004F230822637130234549A018E37102F08E
:1003200072F910224349A01802F06DF90222294601
:1003300004F1200002F067F91B2384F82760A37101
:1003400084F82860204602B0BDE8F08705223849CD
:10035000204602F058F94F2363713023E3710123E3
:1003600084F82750A37184F82850EBE7324BDFF86C
:10037000DC801F78314DC7B10026314C0522314950
:1003800020461E7002F03FF92B7884F8276018F899
:10039000033084F82860637114212B78013393FBB8
:1003A000F1F201FB12332B70CCE71F4E05222549D9
:1003B000304602F028F92B78002418F80330A146C3
:1003C00073714923F371204B1A78012A15BF01225A
:1003D0004FF0050890461F70134F18BF1A7008F1B0
:1003E000730A04EB0800C0B200F070FE04EB0A03CD
:1003F00001343B72E4B20312B872FB72042C4FEA70
:1004000020434FEA206087F809903B73787307F127
:100410000607E6D1192386F82790B37186F828904D
:10042000014CB9E7710000207800002086570008D1
:100430003007002038070020CA000020E400002018
:10044000A1000020CB00002072000020D00000207E
:1004500001282DE9F14F0C4615460AD004D3022895
:1004600022D001B0BDE8F08F8C4B1A688C4B1A601B
:10047000F7E78C4D2B78002BF3D08B4802F0CEF8A9
:10048000874B864C1B68226803F516739342E8D2AB
:10049000864801F033FC0023216885482B7001B0A9
:1004A000BDE8F04F02F0BAB87C4B7E4E1968814827
:1004B00002F0B4F8337837462178002B00F0D5806D
:1004C000642919D1012D05D07B4801B0BDE8F04F5A
:1004D00002F0A4B80024754801F010FC774834708D
:1004E00002F09CF8764B1A78002ABAD01C7001B042
:1004F000BDE8F04F01F020BE722930D1042D01D0AB
:100500007048E2E7A3786178E77801EB03217B1E6E
:100510001C2B8EB201D96C48D7E741F27C13F2193B
:100520009A4201DD6948D0E75223694D6949EB7170
:1005300063783A462B72A378314405F10A006B7256
:1005400002F061F80122FB1CAB71634B31461A705B
:100550003A46624801B0BDE8F04F02F05FB8772933
:100560002AD1032D01D85E48AFE7A3786678033D12
:1005700006EB032641F27C13B6B2EDB272199A4231
:1005800001DD5848A1E753482A46E11C304402F0F7
:100590003AF857224E4B3146DA71627852481A7255
:1005A000A2789D725A7204229A7101234A4A1370EA
:1005B000434A13702A46CDE7632953D1072D01D052
:1005C0004A4882E7A3786678E57806EB0326237924
:1005D000677905EB0325A379B6B207EB032741F250
:1005E0007C13BFB2F2199A42ADB201DD40486CE70C
:1005F0007A199A4201DD3F4867E7AE4223D90023CA
:10060000344AB1182A449F4219DC4323DFF8C080E2
:10061000611C062208F1080088F8073001F0F3FF9A
:100620000723012288F806302B4B31461A703B46CF
:100630002A46314801B0BDE8F04F01F0EFBFC85C79
:10064000D0540133DFE7E0D2224A7B1E2B4413440F
:1006500068422A44991A0131D7D0F118095C03F88D
:100660000119F7E72A46254874E7312940F0B080A0
:10067000122D01D0224828E708222249601C01F0EF
:10068000B3FF064608B120481FE7657C94F8108048
:100690006BB2002B3CDC1D4817E700BF781B002025
:1006A000740000207100002090540008385B00089E
:1006B0009A540008C1540008C6540008ED540008BC
:1006C00070000020FD5400081E5500084755000822
:1006D000A10000202C070020CA0000206C55000853
:1006E00081550008A9550008CF550008E5550008B8
:1006F0000656000839560008715600085957000878
:100700008E56000830070020BE560008E456000848
:10071000314801F083FF04F1090105222F4801F05F
:1007200072FF2F4801F07AFF3446DFF8B0A0DFF8FF
:10073000D490DFF8D4B01AF804104846013401F020
:100740006DFF052C3AD1274801F068FF26480021AB
:100750004FF07F0C044605F001036D0813B185F0DE
:100760006005EDB205EB080292FBFCF3C3EBC3138B
:10077000D21A00235FFA82FE01F800E08B4221D1F9
:10078000452AE8DC591C1429E5D1184801F046FF38
:10079000174DA15D2846013601F040FF142EF8D117
:1007A0000024104801F03AFF124B13481C7001233B
:1007B0003B7001F0A3FA114B1C7052E6584601F051
:1007C0002DFFB8E714F80390F145C4D00133D5E705
:1007D0002A460B48BEE600BF09570008CB000020A0
:1007E0002157000898540008D00000203A5700080C
:1007F00051570008E4000020B05A000870000020A3
:10080000555700083557000833570008014B187832
:10081000704700BF71000020704700000023054AA8
:10082000995C814201D1D8B2704701330B2BF7D1CB
:10083000002070478B570008024A4121002001F038
:10084000BFBA00BF490800080D490B78052B07D92E
:10085000053B0C4A0B7096214FF45C7001F0B0BA66
:1008600002D100220A70F6E7012B0BBF002203F130
:10087000FF330A700B7018BF024A4121ECE700BF3A
:100880003C02002039080008024620B9642140F2E9
:10089000BA2001F095BA094BD3F82436984204DB0C
:1008A000002264214FF45C70F3E75B429842F7DD6D
:1008B00000221E2140F25D10EBE700BF2C07002054
:1008C0002DE9F0414FF00108144C04F5607794F8DD
:1008D0002B3093B194F83830072B0ED808FA03F375
:1008E00013F0E102656A268D0CD113F01E0F04D0BF
:1008F00033461146284602F015FF1C34BC42E6D1AF
:10090000BDE8F081284633460222002102F00AFFAA
:100910003146284603F0E0F8EFE700BF2C0700203F
:10092000F8B5FFF7CDFF40F2093003F08FFB4C48DC
:1009300002F005FE40F2891003F095FB002002F062
:10094000CDFF474802F005FE454802F011FE44483D
:1009500002F0FAFD424802F0BBFD414802F0FEFD04
:1009600007213F4802F0D6FD3D4802F099FD3C4882
:1009700002F0B3FD3A4802F0C3FD02F0A1FD394A8E
:100980000B21374802F0F9FD354802F0ECFD344800
:1009900002F08EFD4FF4207003F058FB0121324825
:1009A00003F061F80121304803F06AF84FF48072D7
:1009B00001212D4803F042F82C4A01212A4803F076
:1009C00071F84FF480620121274803F02BF8284A80
:1009D0000121254803F06FF80121234803F03AF87C
:1009E0006E220121204803F06FF801211E4803F018
:1009F00050F81B4802F0FDFD00231E491C260F463F
:100A000044F6206E9C461C4D1C4C91F8A72306FB17
:100A1000027292F83820072A05D191F8A423022AFD
:100A200008D0052A15D00C33B3F5C07F01F11401AD
:100A3000EBD1F8BDEA1812791819027191F8A603E2
:100A400001389EFBF0F04243A2F51C52103A1A51B5
:100A5000E9E75A5918191A5180F804C0E3E700BFB2
:100A6000002401408B570008000002404C24014044
:100A7000FC0000202C07002000E00008A81800203F
:100A80004FF4FA63034A508A4343908A93FBF0F091
:100A9000704700BFD80100202DE9F04F00210A2542
:100AA000BB4CBC4885B000221346561834F816607B
:100AB0000B3233446E2A9BB2F7D1B3FBF5F320F827
:100AC000113001310B29EED1B34CDFF8DCA22746FF
:100AD00026465546DFF8D482DFF8D4B297F838209E
:100AE000D7F82490511E3B8D062933D8DFE801F05A
:100AF00004040404B6C0B600FB8FB7F83A9097F828
:100B00002A00994589BF4946002199460B4688BF6E
:100B10000121029303910192FFF780FE9D4B019A00
:100B200033F810E00399CE45029B4FD2002328F8FA
:100B30001030042A40F08380002978D040F6FF72FC
:100B400038F81030D11A42F210734B4393FBF2F392
:100B50004BF82030914B1C379F420AF1010ABDD15E
:100B600000274FF0010BA3F5607898F83830062B7A
:100B700011D1EB5D022B0ED0D8F82490B8F828A044
:100B80004846514602F0ABFF08B105F807B05146A0
:100B9000484602F0A1FF0137202F08F11C08E4D1DC
:100BA0007F4FDFF81082DFF8089207F5C07A94F8DB
:100BB000A43394F8A713013B042B00F2B080DFE8C4
:100BC00013F0790089006A00A500C0019E4502D398
:100BD0004FF48053ABE7A2F1030CBCF1010F0AD82C
:100BE000AEEB090E4FEA0E3EA3EB0909BEFBF9F985
:100BF00028F810909DE7B7F83CC0E64502D14FF4C5
:100C0000006394E70CD9AEEB0C0E0EEBCE2EA3EBEB
:100C10000C03BEFBF3FE0EF5006E28F810E088E72B
:100C2000AEEB090E4FEACE2EACEB0909DEE742F23D
:100C3000107338F81020534340F6FF7286E738F8F7
:100C4000103031B1574AA3F5006353434FF40062AB
:100C50007CE7A3F5006242F21073F6E719464846B6
:100C600002F03DFF003018BF01208AF8000071E754
:100C7000002219468AF800204846019302F02FFF0F
:100C8000019B18B102238AF8003063E719464846F1
:100C900002F020FF5EE700200122034694F8A6E35D
:100CA0007045C0F24381012202FA0EF2D2B23B71CA
:100CB000013A26E01C2303FB016191F82A00FFF7AB
:100CC000ADFD59F82030002B3B60D4BF0023012339
:100CD0003B7124E01C2303FB016393F83830062B9F
:100CE00035D0072B3ED0052B19D194F8A603022846
:100CF0000CD0002213461146824219DB79B13B71B8
:100D0000421E44F6206191FBF2F2D0E042F21073F1
:100D10006A5C24493A71002A08BF0B463B600C37D5
:100D2000BA4504F114047FF442AF05B0BDE8F08F7A
:100D300004EB020E9EF8A7E315F80EE0BEF1000FDB
:100D400003D00029EBD10121D3B20132D4E76B5C8F
:100D50003B710BB9134BE1E7022B14BF002342F2A6
:100D60001073DBE73B7994F8A623002B08BF01231F
:100D7000934228BF134694F8A5233B71013A042AF5
:100D800000F28D80DFE802F0183F4F5D980000BF51
:100D9000FC000020D80100202C070020AC0A002015
:100DA000A8180020F0D8FFFFEE010020E600002088
:100DB00010020020781B002094F8A7237879A95C02
:100DC00094F8A823AA5C18B1012816D0002356E095
:100DD00041B1012B30D8A64B3A791A70FFF734FD98
:100DE00001234CE0002A5AD094F8A6239A42F2D963
:100DF00001333B7101F0A6F9EDE700294FD1002A3C
:100E00004DD17A714BE094F8A7237979AA5C11B19E
:100E10000129F4D0DAE7002A41D094F8A6239A42B7
:100E2000E6D80123E5E794F8A7237979AA5C00299D
:100E3000EED1A2B3012B01D9013BDAE794F8A63336
:100E4000D7E794F8A7237979AA5C0329BED801A033
:100E500050F821F0650E0008FF0D0008830E000811
:100E60007B0E0008DAB194F8A6239A420CD901331C
:100E70003B7101F067F901230BE082B902237B711A
:100E80000DE062B1012BF2D9013B3B7101F05AF93F
:100E900003237B713A79764B1A70FFF7D5FC44F641
:100EA000206394F8A623013A93FBF2F23B79534373
:100EB000A3F51C53103B31E794F8A7237979AA5C7A
:100EC000052983D801A050F821F000BFE50E0008E5
:100ED000FF0D0008CD0D0008CD0D0008F30E000831
:100EE000FB0E0008002ADAD0D8F80030BB600423DB
:100EF000C5E7002AD3D10523C1E7002A7FF469AFF3
:100F0000BA68D6F83016D8F800000A448242C6D231
:100F100094F8A6239A4203D901333B7101F012F9E8
:100F20003A79534B1A70FFF78FFC4FE7211891F86D
:100F3000A713695C19B102FA00F10B44DBB201306E
:100F4000AEE61C2303FB016393F83820013A022A22
:100F50000FD893F82A00FFF761FCD6F8242659F839
:100F60002030534342F2107293FBF2F33B600023B4
:100F7000AEE66A5C94F8A8337979EB5C092921D84C
:100F8000DFE801F0057820202020103246652AB1E4
:100F900006237B71D8F80030BB60E8E7002BE6D071
:100FA0000723F6E782B9D6F824263B6852429342DB
:100FB00005DDD6F828269B1A3B6001F0C3F8386897
:100FC000FFF762FC002325E033B1002001233860E5
:100FD0007B71FFF759FCCAE7BB68D8F80020FA33E9
:100FE0009342C4D20823D4E743B93A68D6F82436EA
:100FF0009A42E4DAD6F828361344DDE7002AE4D131
:10100000BB68D8F80020FA339342B0D20923C0E776
:1010100012B901237B71AAE7BB68D8F800203233EC
:101020009342A4D2D6F8243638685B42984205DD54
:10103000D6F82836C01A3860FFF726FCD8F80030FA
:101040003A68BB60002A92D103F5FA73A4E7002B3B
:10105000DFD0BB68D8F800203233934287D238689B
:10106000D6F824369842E9DAD6F828361844E2E76A
:101070003C020020002A7FF47AAF002B7FF477AF88
:101080007B7101F05FF872E7002310B50D4A92F80A
:10109000A41379B105290DD00021541894F8B34355
:1010A000844204D10C225343074AD05810BD013169
:1010B0000529F2D10133202B02F11402E7D10020DF
:1010C00010BD00BF2C070020A818002008B5FFF7AE
:1010D000A5FB024B33F8100008BD00BFD80100206B
:1010E000002310B50D4A92F8A41381B105290ED042
:1010F0000021541894F8B343844205D10C21084AC6
:1011000001FB0323187910BD01310529F1D1013309
:10111000202B02F11402E6D1002010BD2C07002084
:10112000A8180020002310B50C4A92F8A413052932
:101130000DD10021541894F8B343844204D10C22F9
:101140005343074AD05810BD01310529F2D101336C
:10115000202B02F11402E8D1002010BD2C07002042
:10116000A8180020C82310B54C1E93FBF4F342B915
:1011700090F9032090F90200101A800290FBF3F01E
:1011800010BD944204D1044494F902204056F3E780
:10119000104490F9022090F9011090F90300511ABF
:1011A000890291FBF3F141B1801A800290FBF3F0C8
:1011B000F0B1002903DD002804DA002010BD01D0C1
:1011C0000028FADC02220B1893FBF2F39A0292FB3E
:1011D000F1F4B4F5406F02DD01EB410010BD92FB6C
:1011E000F0F2B2F5406F02DD00EB400010BD184692
:1011F00010BD00000378013BDBB20D2B9ABF024A01
:10120000D05C0020704700BF185A00082DE9F84F45
:10121000064608463178002900F0BC80B24D42F203
:1012200010748542B8BF05464B1EA542A8BF25468F
:10123000072B00F2C080DFE803F0040A16213445D2
:10124000619C642096F902104843BDE8F88F642041
:1012500042F2107396F902104143A348A942D8BF45
:101260001846BDE8F88F642096F90210414342F217
:101270001070A942C8BF0020BDE8F88F6FF063006E
:1012800096F9022050430119002940F3828064231B
:101290005343AB427DDC2844604390FBF1F0BDE852
:1012A000F88F6FF0630096F902205043A0F51C51AF
:1012B000103900296DDA64235343AB4269DB0544DE
:1012C000894811E064236FF0630096F902205343CC
:1012D0009D4200FB02F009DAA0F51C5110390029EB
:1012E00057DA054442F210706843D6E742F21072B2
:1012F000811800294DDD28445043CEE7002DB4BFAE
:1013000096F9033096F90230002B00F0E98085EA67
:10131000E574002BA4EBE57442F2107218DA141B8A
:1013200004FB04F0B0FBF2F06043B0FBF2F0642188
:101330005B429BB25843C3F16403323004FB0300A9
:10134000B0FBF1F0101A002D24DA4042BDE8F88F0E
:1013500004FB04F1B1FBF2F16143B1FBF2F159433B
:10136000C3F16400323104FB00106421B0FBF1F0E2
:10137000E9E7002D6FF063000EDA96F90220504382
:10138000A0F51C511039002903DA642353439D4210
:1013900095DD0020BDE8F88F42F2107396F9034006
:1013A0006043C1180029F4DD642262439542F0DBFA
:1013B0002844584371E77378012B62D144F62063C7
:1013C000093949008A1C93FBF2F34FF00008464F9D
:1013D000481C4245DDDD804514BF07EB030B42F29C
:1013E000107BBD4208F1010948DB5D4546DCCC1CA1
:1013F000424621463046FFF7B5FEED1B4A462146E0
:1014000082463046FFF7AEFEAD02ABEB070195FB1F
:10141000F1F54FF4806205FB05F39B1203FB05F425
:1014200094FBF2FC5C00ACEB040E75440AFB05FA7D
:10143000B04498F902709AFBF2FA4FF06408A3EBFB
:10144000830B1C447344584390FBF2F008FB07F7EE
:1014500001FB0AFA4E440BEB4C0B96F902509344F5
:1014600007FB0BAA08FB05F8A4EB4C0408FB04AA35
:1014700001FB00A090FBF2F0BDE8F88FC8461F44C6
:10148000A7E73046FFF7B6FE44F6206E01389EFB14
:10149000F0FE00236421AEF51C54103C984203DC9E
:1014A000064496F90200CFE6A4EB0E0292FBF1F29D
:1014B0004A43954211DB94FBF1F74F43BD420CDCEC
:1014C0001E4496F9024096F90300031BA81A5843DC
:1014D000BA1A90FBF2F02044B6E601337444DDE71B
:1014E0002846BDE8F88F00BFF0D8FFFF2DE9F74F81
:1014F00042F2107C00244FF03C094FF0640844F2A3
:1015000050662E4A2E4B106819681268411A0191D4
:101510002C4F2D49DFF8C0E01A602C4B886853F837
:101520002430A500002BB5BF0A684A6853435343D3
:10153000B6BF274A93FBFCF393FBF2F30A7E034406
:101540006AB10CFB02F292FBF9F201984243B2FB42
:10155000F8F27859A3EB000A524529DA1318C86843
:101560004A698342B8BF034608698342A8BF03465D
:10157000886800EB020A4A7E12B15B42CAF1000A97
:101580007345B8BF7346F2455046B8BF7046B34284
:10159000D4BF7B517E510F4B0134B042D4BFE850D1
:1015A000EE50082C01F11C01B7D103B0BDE8F08F5B
:1015B000C2F1000BDA45B8BF831AD0E7781B0020D0
:1015C00040020020281A0020AC170020481A0020F2
:1015D000F0D8FFFF581B0020B0B9FFFF2DE9F843FA
:1015E000FFF75AFA00235C4A1946154642F82310C1
:1015F0000133442BFAD16427584CDFF8649104F688
:101600002828E37B002B00F08780607C267C78B163
:10161000FFF766FDA37C052B0AD8DFE803F0032B58
:1016200030363C42E37C1B1A5842584100286FD0A8
:10163000E37B581EC0B2252839D8FFF725FDE37D8E
:10164000002B14BF4FF0FF31012141432046FFF72B
:10165000DDFD94F91530584390FBF7F094F91630FE
:1016600007FB0300237D013B032B3AD8DFE803F09F
:1016700036565F68E37C181A18BF0120D6E7E37C72
:1016800083422CBF00200120D0E7E37C83428CBF43
:1016900000200120CAE7E37C834294BF00200120A0
:1016A000C4E7E37C834234BF00200120BEE7A3F1FE
:1016B0002702D2B2432A02D855F82200BFE7A3F18D
:1016C0006B02D2B2072A02D859F82200B7E7732B6F
:1016D00002D1FFF7D5F9B2E70020B0E755F8263080
:1016E000184445F82600237E93B1E07B0138C0B250
:1016F00025282ED8FFF716FDE37D55F82620002B70
:1017000014BF4FF0FF33012300FB032045F82600F0
:101710001A3444457FF475AFBDE8F88342F2107384
:1017200090FBF3F255F82630534345F8263055F830
:1017300026308342D4BF45F8263045F82600D2E74C
:1017400055F826308342ACBF45F8263045F82600D0
:10175000C9E70020D0E700BF481A0020840D002010
:10176000281A002070470000202A28BF20220023CA
:1017700010B4074C01392070934204DB0449501C1B
:1017800010BC00F091BD11F8010F0133E054F3E7F4
:1017900045020020002310B5044C20702146022091
:1017A000637000F081FD607810BD00BF450200202D
:1017B000044B40F02000187059700220194600F0C8
:1017C00073BD00BF4502002040F02000FFF7CCBFF2
:1017D000FF23024901200B7000F066BD4502002086
:1017E000E223024901200B7000F05EBD450200209B
:1017F000E123024901200B7000F056BD4502002094
:101800000A460146A020FFF7AFBF0A460146B020B6
:10181000FFF7AABF202928BF202170B50E466123FB
:10182000084C05462146701C237000F03DFD002346
:10183000681E9E4200DC70BD0133E25C00F8012F9F
:10184000F7E700BF45020020084AFA28137803F0A2
:10185000D70306D143F02003137011780620FFF759
:10186000A7BF012818BF43F00803F5E74402002092
:10187000054B4000197800F0060021F006010143F5
:1018800006201970FFF794BF440200200F22014B7D
:101890001A70704744020020074B834228BF03465A
:1018A00040F6B8309B00B3FBF0F3DB439BB20B7008
:1018B0001B0A4B70704700BF18FCED02044B0A2155
:1018C0001B7813B90348FFF79BBF0348FBE700BF32
:1018D00090020020910200209E02002070B588B086
:1018E000FFF776FF5F4C054670210720FFF760FF8A
:1018F0002378042B7FD8DFE803F003252E498300EB
:1019000000211D20FFF754FF00210120FFF750FFA9
:10191000FA20FFF799FF0320FFF7AAFF524B534D20
:101920001B780520E95CFFF743FF052205F1140150
:101930001020FFF749FFFFF7C1FF01234C4A137046
:10194000237058E0FFF7BAFF4A4B1B78002B14BFF7
:1019500002230323F4E70020FFF78AFF512105202B
:10196000FFF726FF052244491020FFF72DFF0A212B
:10197000424D434B287801FB0030FFF741FF2B78A5
:10198000013303F003032B700323D9E7364B384EA2
:1019900018783178FEF7A6FC0546002860D08379D8
:1019A000002B5DD007211D20FFF702FF0121084613
:1019B000FFF7FEFE0220FFF747FF0020FFF758FF6A
:1019C00069790520FFF7F4FE052229461020FFF76C
:1019D000FBFE294605220A20FFF7F6FE95F8273080
:1019E000A979E81D4BB1FFF710FF95F82830A3B394
:1019F00033780133337008B070BDFFF701FFF4E7AF
:101A0000A80604D5002211461046FEF721FDE9067E
:101A100006D5002201201146FEF71AFDFFF7E8FE69
:101A20006A0615D56020FFF7B5FE431EDBB21F2BFB
:101A300005460FD801466846FFF7ECFE2A46694680
:101A40000220FEF705FD1720FFF7A4FEC307E9D526
:101A5000052375E7FFF7C4FEFAE704232370C7E701
:101A60000523FBE79B0200209C0200208D1800202C
:101A70009D02002066020020265A00088F020020E6
:101A800067020020322238B52F4D304C286821469D
:101A9000504300F5B71000F5587020EAE070FFF7EA
:101AA000FBFE6868A11C504300F5B71000F55870A4
:101AB00020EAE070FFF7F0FEA868211D504300F512
:101AC000B71000F5587020EAE070FFF7E5FE204DF2
:101AD000204C28682146504300F5B71000F5587097
:101AE00020EAE070FFF7D8FE6868A11C504300F5BB
:101AF000B71000F5587020EAE070FFF7CDFEA86837
:101B0000211D504300F5B71000F5587020EAE07031
:101B1000FFF7C2FE142010490B78013393FBF0F25B
:101B200000FB123311220B700C490B78013393FB2D
:101B3000F2F202EB02129B1A00220B70084B1A7091
:101B4000BDE83840FFF7CABE281A00209E020020D8
:101B5000581B0020910200209C02002090020020CF
:101B60009B02002008B54FF4807002F0B5FABDE882
:101B70000840FFF7B3BE00000122014B1A70704706
:101B8000660200200022014B1A7070476602002096
:101B90005522AA215A20434B70B5DA71424B434C6F
:101BA000D9711872424BFF20597001219A709975B2
:101BB00000220221187083F82010104641F2751699
:101BC00021461A7385192D5D01302A44052892B2E9
:101BD000F8D1D0B2120ADA725A75DA7741F2751575
:101BE0000022987218759877541998180C5D013274
:101BF000052AC470F8D1002241F2611554199818D1
:101C00000C5D0132072A4473F8D1002241F26815B5
:101C1000541998180C5D0132072AC475F8D10022B6
:101C200041F26F15541998180C5D0132062A80F89C
:101C30002140F7D14FF48073022200211D4801F0AA
:101C400071FD4FF480711B4801F046FF19494FF4B4
:101C5000807002F047FA01214FF4807002F014FA0C
:101C60004FF4807002F02EFA172002F023FB0321BC
:101C70000846FFF79DFD0E210020FFF799FD10217A
:101C80000420FFF795FD01210220FFF791FD0121BE
:101C90001C20FFF78DFDBDE870400521064800F0CF
:101CA0007DBB00BF9E020020910200202C07002077
:101CB0006702002000080140851A0008084B094A05
:101CC0001B6812785B6833F8220003EB82014FF641
:101CD000FF73984203D0044A498800F071B87047F6
:101CE000AC020020A8020020ED1C0008024A137874
:101CF00001331370FFF7E2BFA8020020002208B5ED
:101D0000054B1860054B00781A7000F051F8BDE8DB
:101D10000840FFF7D3BF00BFAC020020A80200209C
:101D200008B54FF4607002F091F94FF480714FF0F4
:101D3000007001F029FD4FF40043022203211848EE
:101D400001F0F0FC00234FF080401A46194601F0E4
:101D50007BFF4FF0804001F080FF03214FF0804077
:101D600001F08AFF0F4B104A1B6800219B0813608B
:101D70004FF08040062201F083FF00214FF08040A9
:101D800002F04AF800214FF0804002F0D3F8002121
:101D90004FF0804002F05AF86422044B1A6008BDEC
:101DA0000008014068000020B4020020B8020020B2
:101DB000642828BF6420014B18607047B8020020D7
:101DC000F8B51E4B0D461A60074670B901464FF034
:101DD000804002F0AFF84FF0804001F043FF294609
:101DE000BDE8F840164800F099BA164E3168F1B9CE
:101DF0004FF0804002F09EF8134B4FF080401C687B
:101E00003668B4FBF7F4214601F038FF642263081A
:101E10007343B3FBF2F37343B3FBF2F37343002159
:101E2000B3FBF2F24FF0804002F0BEF8D3E700219E
:101E30004FF0804002F044F8DEE700BFB00200201F
:101E4000711E0008B8020020B402002008B507483F
:101E500000F092FA4FF08040002102F06BF8BDE8EC
:101E600008404FF0804001F002BF00BF711E000823
:101E700010B5FFF7EBFF034B1B6813B1BDE8104033
:101E8000184710BDB002002042F210734EF66022D7
:101E900010B50A4C0A482178032914BF1146194687
:101EA00000F03CFA2078074B074ABDE810400128B3
:101EB0000CBF10461846FFF721BF00BFBC02002030
:101EC000891E0008405A00082C5A000810B5FEF779
:101ED000D7FD044600F0DEF8114B1A78012A11D024
:101EE00002D3022A15D010BD40F6AB5294420FD84F
:101EF00001241C7000F03AF82146BDE81040094862
:101F000000F00CBA40F66552944201D802221A70D1
:101F100010BD40F60B529442FAD80322F7E700BFF7
:101F2000BC020020891E00081EF0040F0CBFEFF356
:101F30000880EFF3098000F000B800231B68FFDE83
:101F40000122034B1A700022024B1A70704700BF27
:101F5000C5020020C40200200023024A1370024A76
:101F600013707047C5020020C4020020054B1A7888
:101F70003AB9012204491A70044B0A701A68044BDA
:101F80001A607047C4020020C5020020781B0020A0
:101F9000C0020020164B10B41A78164B62B11648D6
:101FA000164902680C68121BC72A05D902680A6024
:101FB0001A7882F001021A701B789BB10A210E4B2D
:101FC0001B68B3FBF1F201FB12320D4B93F836366E
:101FD000B3FBF1F39A4205D24FF40051094810BC0B
:101FE00001F07ABD4FF40051064810BC01F072BDFB
:101FF000C4020020C5020020781B0020C00200207F
:102000002C0700200010014010B5084C4FF400537D
:1020100020460022022101F085FB20464FF40051AA
:1020200001F058FDBDE81040FFF796BF00100140D9
:1020300010B540F2823002F009F84FF4007302222A
:102040000321124801F06EFB0023114C1A46194679
:10205000204601F0F9FD204601F0FFFD2046032156
:1020600001F00AFE2046642101F008FE0622204607
:10207000114601F005FE2046062101F0CDFE204666
:10208000BDE81040062101F055BF00BF000C014023
:102090000008004008B5254B93F8371641B924488D
:1020A000062101F047FFBDE80840214801F0DFBDEF
:1020B00041F2670398424FF0640211D840F6AB53E7
:1020C00098421ED94FF42F735043A0F5AA20A0F5D3
:1020D000E660B0FBF3F032235843B0FBF2F21A444F
:1020E00064234A431248B2FBF3F2062101F05CFF7D
:1020F0000F48062101F0E4FEBDE808400C4801F05D
:10210000B1BD40F6655398420DD946235043A0F522
:10211000A720A0F57670B0FBF3F02D235843B0FB59
:10212000F2F20532DCE70522DAE700BF2C070020D7
:1021300000080040704700000122014B1A707047F0
:10214000C60200200122014B1A707047C70200200E
:1021500038B52D4C23782546002B31D1FEF756FBA0
:1021600000284FD1294B1A78BAB118700123237077
:10217000274B284AA3600433236140F25E43626028
:1021800025480432E260636100F048FA01F0F8FF8C
:10219000A068BDE8384001F087BA204B19780029C3
:1021A00030D01A70012323701D4B1E4AA3600433E4
:1021B00023615F2362600432E26063611A48E3E7EF
:1021C0002069C0F309030BB901F06EFAEB682869C6
:1021D000196801F0F5FFEB680433EB602B690433F9
:1021E0002B616B69013B6B6163B92B706B68A868ED
:1021F000196801F0E5FF01F0D5FFBDE838400B4854
:1022000000F00CBA38BD00BFC8020020C602002092
:1022100000E400082C070020805B0008C7020020B3
:1022200000E00008A8180020B05B0008EE5B000882
:1022300013B51B4C40F28E3001F008FF20464FF4DE
:1022400020430222032101F06DFA20464FF480530F
:1022500000220321A4F5544401F064FA4FF48043B2
:10226000012200210F4801F05DFA204601F0A0FC98
:1022700000231821019300931A46204601F0CFFC59
:10228000204601F0B9FC204601F0C4FC204601F0D4
:10229000BCFC204602B0BDE8104001F0A1BC00BF6C
:1022A000000C014000080140F8B50D4606464FF409
:1022B00080510B4801F010FC2C460A4F2E44B442CA
:1022C00006D14FF48051064801F004FC2878F8BD8F
:1022D0002178384601F089FC04F8010BEFE700BFD4
:1022E000000C01400038004008B5002001F0C6FF96
:1022F000094B18684FF4FA53B0FBF3F0013801F0C2
:10230000B5FF0021FF2001F0E1FF01F0C3FFBDE8B0
:10231000084001F0C7BF00BF6400002070B4134C38
:10232000002908BF01210022234654F83260D5005D
:10233000B04209D1631972B60D4A1860126811448F
:10234000596062B670BC70470132052AEDD1002297
:1023500053F83250D4000DB92344ECE70132052A7A
:10236000F6D170BC034800F059B900BFE00200206C
:10237000781B0020195C00080023074A52F833102C
:10238000884205D172B6002142F8331062B6704718
:102390000133052BF2D17047E0020020024B196097
:1023A000024B1860704700BF0C0300200803002098
:1023B000F8B5174D2B6801332B60164B196859B1CE
:1023C000154B28681B68B0FBF3F203FB1202B2B98D
:1023D000FFF704F9FFF78AF8002427460F4EA359A8
:1023E00033B131192A684968914201D1A751984700
:1023F0000834282CF3D1BDE8F840FFF7CBBD28689E
:10240000B0FBF3F203FB1203012BE5D18847E3E7AE
:10241000781B0020080300200C030020E0020020AD
:1024200010B540F20E301F4C01F010FE4FF48062E8
:102430001D491E4800F08AF820464FF4007302221E
:10244000032101F06FF94FF480630122204600213F
:1024500004F5405401F066F920464FF4E13101F0F3
:10246000B3FD2046082101F0C3FD2046002101F004
:10247000C8FD2046002101F0CAFD2046002101F0E0
:10248000D2FD20460C2101F0C8FD094A2520136821
:1024900043F02003136001F00DFF2046BDE810401B
:1024A00001F0C7BD00080140100300201007002004
:1024B0000C38014037B5114C2368980605D51048F3
:1024C0000368990601D501F0BDFD23681A060ED5F3
:1024D0000B4D2B681B060AD50DF10701094800F0CA
:1024E00068F830B19DF80710284601F0A7FD03B049
:1024F00030BD236823F080032360F8E70C380140E7
:102500000038014010070020012808B509D192B217
:10251000074800F03AF8074A136843F08003136055
:1025200008BD00F05BF8052303604FF0FF3008BDE5
:10253000100700200C38014008B5642001F0EAFAC9
:10254000BDE8084001F0CEBA01F02ABB00230160CB
:1025500082808360C3607047C26830B58488551C30
:10256000B5FBF4F304FB13538468A3420BD0036858
:102570009954C36881880133B3FBF1F201FB123334
:10258000C360012030BD002030BD2DE9F041804600
:102590000E460C468F18A51BBC42ADB206D014F8EF
:1025A000011B4046FFF7D8FF0028F4D12846BDE8BC
:1025B000F08181B18368C26893420CD00268D35C19
:1025C0000B70836881880133B3FBF1F201FB123396
:1025D000836001207047002070470000014B18689D
:1025E000704700BF0000002010B50139024490423E
:1025F00001D1002010BD10F8013B11F8014FA3429A
:10260000F5D0181B10BD10B5431E0A44914200D1ED
:1026100010BD11F8014B03F8014FF7E70FB40A4B57
:1026200013B51C6824B1A36913B9204600F04EF815
:1026300005AB049AA1682046019300F05FF902B04F
:10264000BDE8104004B0704700000020014900F0D0
:10265000A9B800BFD5310008002310B504460360B7
:102660004360836081814366C2810361436183610A
:10267000194608225C3000F0B3F8054B246263620F
:10268000044BA362044BE362044B236310BD00BF01
:10269000792E00089B2E0008D32E0008F72E000884
:1026A00070B568254A1E55430E4605F1740100F0C9
:1026B0009FF8044640B1002180E842000C30A06041
:1026C00005F1680200F08CF8204670BD836910B5F2
:1026D000044633BB8364C3640365124B124A1B6810
:1026E0008262984204BF0123836100F01FF860609A
:1026F000204600F01BF8A060204600F017F80022EA
:10270000E06004216068FFF7A7FF01220921A068AB
:10271000FFF7A2FF02221221E068FFF79DFF0123CD
:10272000A36110BD505C00084D260008F8B51C4B95
:1027300007461E68B36913B93046FFF7C7FF48362E
:10274000B4687368013B03D5336833B13668F7E783
:10275000B4F90C506DB16834F4E704213846FFF742
:102760009FFF30600028F1D10C2304463B602046D7
:10277000F8BD4FF6FF73E38101236566A3812560F1
:10278000A560656025616561A5610822294604F19F
:102790005C0000F025F86563A563A564E564E6E7E1
:1027A000505C00082DE9F84380468946002600F178
:1027B000480414B93046BDE8F883A5686768013F4E
:1027C00001D52468F5E7AB89012B07D9B5F90E309F
:1027D000013303D029464046C84706436835EEE733
:1027E00003460244934200D1704703F8011BF9E706
:1027F00070B5CD1C25F0030508350C2D38BF0C2510
:10280000002D064601DBA94203D90C2333600020CA
:1028100070BD00F08DFD234A1468214691B9224C09
:1028200023681BB9304600F017FB2060294630466C
:1028300000F012FB431C26D10C233046336000F01D
:1028400078FDE4E70B685B1B1AD40B2B0FD90B60E8
:10285000CC18CD50304600F06CFD04F10B00231D68
:1028600020F00700C31A1BD05A42E25070BD8C42C0
:102870000BBF63684B681360636018BF0C46E9E7E1
:102880000C464968CAE7C41C24F00304A04205D0E2
:10289000211A304600F0E0FA0130CDD02560D9E7AA
:1028A00070BD00BF2007002024070020936810B4EB
:1028B000013B002B936008DA9469A34202DBCBB2A0
:1028C0000A2B02D110BC00F01BBB1368581C10600F
:1028D0001970C8B210BC7047F8B506460F461446CA
:1028E000D518AC4201D1002007E03A4614F8011B8C
:1028F0003046FFF7DBFF431CF3D1F8BD2DE9F04F65
:102900009DB00C4617460393064618B183690BB970
:10291000FFF7DCFE7C4B9C4257D17468A3891807F3
:102920005DD52369002B5AD00023099320238DF80D
:10293000293030234FF0010B8DF82A30B846454638
:1029400015F8013B002B55D1B8EB070A0BD05346C5
:102950003A4621463046FFF7BFFF013000F0C48001
:10296000099B5344099398F80030002B00F0BC8079
:1029700000234FF0FF3204930793059206938DF8DE
:1029800053301A9305222978604800F0C3FC05F102
:102990000108049B002831D1D90644BF20228DF8BC
:1029A00053201A0744BF2B228DF853202A782A2A55
:1029B0002CD000210A20079AA84698F8003001354B
:1029C000303B092B6DD971B326E0514B9C4201D1AC
:1029D000B468A3E74F4B9C4208BFF4689EE72146CA
:1029E000304600F0F1FA00289ED04FF0FF301DB0C5
:1029F000BDE8F08F252BA7D0A846A0E7434A45465F
:102A0000801A0BFA00F018430490BBE7039A111DDB
:102A100012680391002A01DB079204E0524243F05E
:102A200002030792049398F800302E2B10D198F8E7
:102A3000013008F101012A2B37D1039B08F102086C
:102A40001A1D1B680392002BB8BF4FF0FF3305938C
:102A5000314D032298F80010284600F05BFC40B18D
:102A60004023401B03FA00F0049B08F101080343D4
:102A7000049398F800100622284808F101078DF801
:102A8000281000F047FC002834D0254B03BB039BE3
:102A9000073323F0070308330393099B4B4409933F
:102AA0004CE700FB0232012186E700230A25184685
:102AB0000593884698F800200131303A092A03D955
:102AC000002BC5D00590C3E705FB00200123F0E7EC
:102AD00003AB00932246134B04A93046AFF30080AA
:102AE000B0F1FF3F8146D8D1A3895B063FF57DAFAA
:102AF00009987CE703AB009322460A4B04A93046B1
:102B000000F08AF8ECE700BF745C0008B45C0008D1
:102B1000945C0008545C0008BA5C0008BE5C0008C5
:102B200000000000D92800082DE9F04791461F4613
:102B30008A680B6906469342B8BF1346C9F800304D
:102B400091F843200C46DDF8208012B10133C9F81A
:102B500000302368990642BFD9F800300233C9F823
:102B60000030256815F0060507D104F1190AE3685D
:102B7000D9F800209B1A9D422ADB94F84330226842
:102B8000003318BF012392062FD404F143023946C3
:102B90003046C047013022D02368E56803F00603C1
:102BA000042B18BF0025D9F800204FF0000908BFFA
:102BB000AD1AA368226908BF25EAE5759342C4BF30
:102BC0009B1AED181A344D451BD10020BDE8F08743
:102BD0000123524639463046C047013003D14FF0F9
:102BE000FF30BDE8F0870135C1E73020E11881F8FA
:102BF00043005A1C94F845102244023382F84310D3
:102C0000C3E70123224639463046C0470130E6D0AB
:102C100009F10109D7E700002DE9F04317460A7EC4
:102C200085B06E2A984606460C460C9B01F1430E71
:102C300000F0BC801AD8632A2ED00AD8002A00F0EF
:102C4000C880582A00F08A8004F1420584F84220A6
:102C50002AE0642A01D0692AF6D121681A6811F0A5
:102C6000800F23D0111D1960136827E0732A00F02C
:102C7000B48008D86F2A2AD0702AE5D10A6842F0B9
:102C800020020A6003E0752A21D0782ADCD178225C
:102C90006F4984F8452064E01A6801F14205111D6E
:102CA0001960136884F842300123A3E011F0400F4B
:102CB00002F104011960D7D0B2F90030002B03DA19
:102CC0002D225B4284F8432062490A2217E02068E3
:102CD000196810F0800F03D0081D18600B6806E01B
:102CE00010F0400F01F104001860F7D00B886F2A34
:102CF00014BF0A2208225749002084F8430065685F
:102D0000002DA560C0F29C80206820F004002060A7
:102D1000002B3FD1002D40F095807546082A0BD13D
:102D20002368DA0708D5236962689A42DEBF302338
:102D300005F8013C05F1FF35AEEB05032361CDF845
:102D400000803B4603AA21463046FFF7EDFE0130E6
:102D500055D14FF0FF3005B0BDE8F08381F8452034
:102D60003C492268186812F0800F00F104051D60CC
:102D700001D0036802E05506FBD50388D00744BFA5
:102D800042F0200222601BB9226822F02002226059
:102D90001022B1E77546B3FBF2F002FB1033CB5CB7
:102DA00005F8013D03460028F5D1B7E708681A6821
:102DB00010F0800F496904D0101D18601368196065
:102DC00007E010F0400F02F1040018601368F6D01D
:102DD0001980002375462361B1E71A68111D196037
:102DE000156800216268284600F094FA08B1401B7B
:102DF000606063682361002384F843309FE72369A0
:102E00002A4639463046C0470130A2D023689B0786
:102E100007D5002504F11909E368039A9B1A9D421E
:102E200005DBE068039B9842B8BF184693E701238F
:102E30004A4639463046C04701308AD00135EBE773
:102E4000002BA7D10B7804F1420584F8423065E7E6
:102E5000D65C0008C55C000838B50023054C054663
:102E60000846236000F00EFB431C02D1236803B127
:102E70002B6038BD7C1B002010B50C46B1F90E103C
:102E800000F0A4FA0028ABBF636DA3891B1823F4DC
:102E90008053ACBF6365A38110BD2DE9F0411F468F
:102EA0008B890546DB050C46164605D50223002214
:102EB000B1F90E1000F0B8F9A389324623F480531B
:102EC000A381B4F90E103B462846BDE8F04100F05E
:102ED00069B810B50C46B1F90E1000F0A5F9431C05
:102EE000A38915BF606523F4805343F48053A38105
:102EF00018BFA38110BDB1F90E1000F0D3B80000C7
:102F0000F8B50E461446054618B183690BB9FFF7AC
:102F1000DDFB214B9C422AD16C68A369A360A38985
:102F20001A072ED5236963B323692068F6B2C01A45
:102F300063693746984204DB2146284600F04AF987
:102F400028BBA3680130013BA36023685A1C2260A0
:102F50001E706369984204D0A389DB0719D50A2E35
:102F600017D12146284600F035F990B10FE00B4B00
:102F70009C4201D1AC68D0E7094B9C4208BFEC6889
:102F8000CBE72146284600F01FF80028CCD04FF0B0
:102F9000FF373846F8BD00BF745C0008945C000839
:102FA000545C000838B50546084611460022054C19
:102FB00022601A46FFF7A8FA431C02D1236803B126
:102FC0002B6038BD7C1B0020324B70B51D68064657
:102FD0000C4625B1AB6913B92846FFF777FB2E4B9A
:102FE0009C420FD16C68B4F90C309AB215072CD4FE
:102FF000D00611D40922326043F04003A3814FF080
:10300000FF3070BD254B9C4201D1AC68EBE7244BEF
:103010009C4208BFEC68E6E7510712D5616B41B1ED
:1030200004F14403994202D0304600F083F90023B2
:103030006363A38923F02403A381002363602369CE
:103040002360A38943F00803A38123694BB9A389B3
:1030500003F42073B3F5007F03D02146304600F01F
:1030600019F9A28912F001030CD00023A36063694F
:103070005B42A361236953B9B4F90C3013F08000AB
:10308000BAD170BD920758BF6369A360F2E7002010
:10309000F7E700BF00000020745C0008945C0008A3
:1030A000545C000838B50023054C054608462360EB
:1030B00000F0C0F9431C02D1236803B12B6038BD76
:1030C0007C1B00208A892DE9F041054610070C463B
:1030D0005AD44B68002B05DC0B6C002B02DC002063
:1030E000BDE8F081E66A002EF9D0002312F4805288
:1030F0002F682B6033D0606DA3895A0705D56368AC
:10310000C01A636B0BB1236CC01A00230246E66A37
:10311000216A2846B047431CA38906D129681D2986
:103120004BD82B4ACA40D60747D500226260226995
:10313000D904226004D5421C01D12B6803B9606513
:10314000616B2F600029CAD004F14403994202D078
:10315000284600F0EFF800206063BDE8F081216AA6
:1031600001232846B047411CC6D12B68002BC3D091
:103170001D2B01D0162B01D12F60B0E7A38943F09E
:103180004003A381BDE8F0810F69002FA7D093070A
:1031900018BF00230E6808BF4B69A6EB07080F6035
:1031A0008B60B8F1000F9ADD43463A46216A284603
:1031B000A66AB047002807DCA38943F04003A38137
:1031C0004FF0FF30BDE8F0810744A8EB0008E8E7C6
:1031D0000100402038B50B6905460C46DBB118B13B
:1031E00083690BB9FFF772FA0C4B9C4209D16C68EA
:1031F000B4F90C307BB121462846BDE83840FFF7D2
:1032000061BF074B9C4201D1AC68F1E7054B9C4282
:1032100008BFEC68ECE7002038BD00BF745C000814
:10322000945C0008545C000838B505460846114611
:103230000022054C22601A4600F014F9431C02D10A
:10324000236803B12B6038BD7C1B002070B50E468F
:10325000B1F90E1090B0002914461D4607DA00237C
:103260002B60B3891A0610D44FF480630EE001AAD4
:1032700000F0BEF80028F2DB029A02F47042A2F5D8
:1032800000535A425A412A60EEE74023002023604F
:1032900010B070BD8B8973B59D0706460C4607D5E7
:1032A00004F14703236023610123636102B070BD11
:1032B00001AB6A46FFF7CAFF009905463046FFF7A3
:1032C00097FA48B9B4F90C309A05EFD423F0030308
:1032D00043F00203A381E3E70D4BB362A3892060AF
:1032E00043F08003A381009B20616361019B5BB17C
:1032F000B4F90E10304600F08DF828B1A38923F000
:10330000030343F00103A381A3891D43A581CDE7F6
:103310004D26000810B5C9B202449042034601D1BF
:10332000002010BD1C7801308C42F6D1184610BD2B
:103330007047704738B50546002943D051F8043C22
:103340000C1F002BB8BFE418FFF7F2FF1E4A1368EA
:10335000104633B9636014602846BDE83840FFF773
:10336000E8BFA3420BD921686218934201BF1A68D3
:103370005B685218226063600460EDE713465A6888
:103380000AB1A242FAD919685818A0420BD1206894
:103390000144581882421960DED110685268014415
:1033A00019605A60D8E702D90C232B60D4E7206853
:1033B00021188A4201BF11685268091821606260B1
:1033C0005C60C9E738BD00BF2007002038B505465E
:1033D000084611460022054C22601A4600F04AF8C1
:1033E000431C02D1236803B12B6038BD7C1B002035
:1033F00038B50023064C054608461146236000F008
:1034000021F8431C02D1236803B12B6038BD00BFF3
:103410007C1B002038B50023054C05460846236078
:1034200000F018F8431C02D1236803B12B6038BDAB
:103430007C1B00205822024B4FF0FF301A6070476F
:103440007C1B00205822024B4FF0FF301A6070475F
:103450007C1B00205822024B00201A60704700BFDE
:103460007C1B00205822024B4FF0FF301A6070473F
:103470007C1B00205822024B4FF0FF301A6070472F
:103480007C1B0020044A05491368002B08BF0B462B
:10349000184410601846704728070020801B002041
:1034A0008368DB075EBF836843F001038360704776
:1034B0008368DB0742BF836843F001038360704782
:1034C000024A136843F40003136070470824014064
:1034D000836823F4801383607047836800F10802D7
:1034E00043F00803836013681B07FCD470478368AC
:1034F00043F00403836070478068C0F38000704726
:1035000010B50446FFF7F3FF2046FFF7F5FF00284C
:10351000FAD110BD0022134610B501FA02F40332AD
:103520001E2A43EA0403F8D10361002201FA02F4DF
:103530000332182A43EA0403F8D1C36010BD83683C
:1035400023F0010383607047436823F40063436002
:103550007047436843F4807343607047836823F483
:10356000006383607047836843F0020383607047A1
:10357000836823F00203836070471029F0B537D8C1
:10358000002426462746254601238B422AD8062BAF
:1035900098BF92F800E002F101029CBF0EFA04FE0F
:1035A00046EA0E06A3F1070EBEF1050F9FBF12F803
:1035B00001ECA4F11E0C0EFA0CFE47EA0E07A3F173
:1035C0000D0EBEF1050F9EBF12F801ECA4F13C0CEC
:1035D0000EFA0CFE03F1010398BF45EA0E05DBB2BB
:1035E0000534D2E7013945EA0155C56207634663F0
:1035F000F0BD836843F4807383607047044B1B689D
:103600000360044B1B684360034B1B688360704777
:10361000F0F7FF1FECF7FF1FE8F7FF1F064B1868D6
:10362000064B1B889BB2B3F5007F82BF044B1B681F
:10363000184300F0350070470C200240E0F7FF1FF0
:103640004C20024038B504460D4600F0B3FD124B45
:103650001B889BB2B3F5007F04D9104B9C4201D963
:103660000F4A00E00F4A136843F0010313602580FE
:1036700000F0A0FD084B1B889BB2B3F5007F04D976
:10368000064B9C4201D9064A00E0064A136823F023
:103690000103136038BD00BFE0F7FF1FFFFF0708FD
:1036A000502002401020024010B5044600F082FD78
:1036B000164B1B889BB2B3F5007F09D9144B9C4273
:1036C00006D9144B1A6842F002021A60124A05E049
:1036D000124B1A6842F002021A60114A14601A680A
:1036E00042F040021A6000F065FD084B1B889BB257
:1036F000B3F5007F04D9064B9C4201D9054A00E08E
:10370000064A136823F00203136010BDE0F7FF1FA1
:10371000FFFF0708502002405420024010200240C2
:10372000142002402DE9F0414FF6E07796469C4682
:103730000268436800254CFA05F4E4071BD5072D01
:10374000ACB28BBF3C4616461E46A40098BFA4B23E
:103750004FF00F0808FA04F826EA080604F10208F8
:103760000EFA08F801FA04F448EA04043443082D78
:103770002CBF2346224601350437102DBFB2DAD1C3
:1037800002604360BDE8F081034A136823F0E06300
:10379000194308431060704704000140024A13684F
:1037A00043F080731360704700100240024A1368B0
:1037B00043F400031360704708100240062822D823
:1037C000DFE800F004090E13181A1C000F4B1868EC
:1037D000C0F3406070470D4B1868C0F3C06070477D
:1037E0000A4B1868C0F340707047084B1868C0F364
:1037F00040407047054B02E0054B00E0054B186860
:10380000C0F3400070470020704700BF0010024026
:10381000201002402410024010B504462046FFF755
:10382000CDFF0028FAD010BD06281FD8DFE800F031
:1038300004060B1015171900FFF7B0BF0C4A1368E8
:1038400043F0806311E00A4A136843F080530CE0B0
:10385000074A136843F4803307E0054A02E0054A4B
:1038600000E0054A136843F001031360704700BF8E
:10387000001002402010024024100240024A136847
:1038800043F400231360704700100240034A13689A
:1038900023F0030318431060704700BF0410024078
:1038A000034A136823F4701343EA804010607047A2
:1038B00004100240034A136823F4803343EA0040B3
:1038C0001060704704100240034A136823F4003369
:1038D00043EA40401060704704100240034A1368F6
:1038E00023F4404343EA80301060704704100240E4
:1038F000034A136823F4605343EAC0201060704702
:1039000004100240034A136823F4E06343EA0020F2
:103910001060704704100240034A136823F0F0035C
:1039200043EA0010106070470410024008B50420FC
:10393000FFF77AFF0420FFF76FFF0020FFF7A6FFD5
:103940000020FFF7E9FF0020FFF7C8FF0020FFF786
:10395000D9FF0020FFF7CCFF002000F007FC042077
:10396000FFF79EFF0020FFF7A5FFFFF717FF0020DE
:10397000FFF752FF0220FFF789FF044B044A136050
:10398000044A1360044A136008BD00BF00366E018C
:1039900064000020680000206C00002008B50420AE
:1039A000FFF742FF0420FFF737FF0020FFF76EFF0D
:1039B0000320FFF739FF0320FFF72EFF0120FFF759
:1039C00065FF0020FFF7A8FF0020FFF787FF00201A
:1039D000FFF798FF0020FFF78BFF002000F0C6FBE9
:1039E0000120FFF75DFF0120FFF764FF0020FFF7D4
:1039F0006BFFFFF7D3FE0020FFF70EFF0220FFF75B
:103A000045FF044B044A1360044A1360044A1360E0
:103A100008BD00BF00366E01640000206800002071
:103A20006C0000201423013959430830435823F413
:103A30004063435043581A4342507047142301399E
:103A400059430830435823F44073435043581A43B2
:103A5000425070471423013959430830435843F00A
:103A600080034350704714230139594308304358A9
:103A700043F020034350435823F48043435070479E
:103A80001423013959430830435823F0100343509D
:103A900070471423013959430830435843F0010358
:103AA000435070471423013903FB01008368DB078F
:103AB00058BF026170471423013903FB010083687A
:103AC000DB0758BF426170470139142359430C305A
:103AD0004250704701617047090401617047806876
:103AE000084070474CF6CC42014B1A60704700BF4B
:103AF00000300040024B1868C0F34000704700BF20
:103B00000C300040024B186800F00100704700BF05
:103B10000C300040400138B5030BB3F5807F1FD84F
:103B2000802B02D9040A06251DE0402B02D9C409C6
:103B3000052518E0202B02D98409042513E0102B59
:103B400002D9440903250EE0082B02D904090225F5
:103B500009E0042B87BFC40801258408002502E082
:103B600040F6FF740625FFF7CDFF0028FBD145F294
:103B70005552084B1A60084A15601D46FFF7BAFFF8
:103B80000028FBD145F255532B60044BC4F30B04C2
:103B90001C6038BD00300040043000400830004058
:103BA0004AF6AA22014B1A60704700BF003000405D
:103BB0000A4B98420DD003F57443984206D0A3F502
:103BC0007843984209D140F20E2004E04FF4C670C9
:103BD00001E040F20F2000F046BA7047003C004080
:103BE000036843F0400303607047C1608368DB07EC
:103BF000FCD5C06880B27047036843F4007303606B
:103C0000436823F0040343607047036843F4807300
:103C100003607047436823F004034360704770B546
:103C2000059C056844F00406049C05F441553443A2
:103C300023431A434368114341EA050443F0040354
:103C400043600460002070BD10B504681A4324F47A
:103C50005C7411430C43046010BD036843F080039F
:103C600003607047036843F0010303607047036813
:103C700023F001030360704781627047C16270479F
:103C8000062900F2C880DFE811F00700C600360000
:103C9000C6006800C6009600836923F003038361B1
:103CA00083698361836923F070038361072A00F2CB
:103CB000B280DFE802F03304080C1014181C83698A
:103CC00043F0100347E0836943F0200343E0836936
:103CD00043F030033FE0836943F040033BE08369F6
:103CE00043F0500337E0836943F0600333E08369B6
:103CF00043F070032FE0836923F440738361836989
:103D00008361836923F4E0438361072A00F283809F
:103D1000DFE802F004060A0E12161A1E83691AE082
:103D2000836943F4805316E0836943F4005312E03F
:103D3000836943F440530EE0836943F480430AE00F
:103D4000836943F4A04306E0836943F4C04302E07F
:103D5000836943F4E04383617047C36923F003033D
:103D6000C361C369C361C36923F07003C361072AD8
:103D700051D8DFE802F03204080C1014181CC36993
:103D800043F0100346E0C36943F0200342E0C369F7
:103D900043F030033EE0C36943F040033AE0C369B7
:103DA00043F0500336E0C36943F0600332E0C36977
:103DB00043F070032EE0C36923F44073C361C36909
:103DC000C361C36923F4E043C361072A23D8DFE852
:103DD00002F004060A0E12161A1EC3691AE0C3691D
:103DE00043F4805316E0C36943F4005312E0C369FF
:103DF00043F440530EE0C36943F480430AE0C369CF
:103E000043F4A04306E0C36943F4C04302E0C3693E
:103E100043F4E043C3617047062916D8DFE801F098
:103E2000041508150D151100836943F0080302E01D
:103E3000836943F4006383617047C36943F00803F7
:103E400002E0C36943F40063C36170471A4A06295C
:103E500018D8DFE801F0041708170C171000036AE0
:103E600043F002030AE0036A43F0200306E0036A1A
:103E700043F4007302E0036A43F400539042036288
:103E80000CD118E0904209D103290BD005290DD09F
:103E9000012910D1036A43F008030AE0074B984256
:103EA00009D1F1E7036A43F0800302E0036A43F4B7
:103EB0000063036270477047002C014000340140EA
:103EC0001A4A062918D8DFE801F0041708170C175A
:103ED0001000036A43F001030AE0036A43F0100391
:103EE00006E0036A43F4807302E0036A43F48053FC
:103EF000904203620CD118E0904209D103290BD003
:103F000005290DD0012910D1036A43F004030AE00A
:103F1000074B984209D1F1E7036A43F0400302E0FE
:103F2000036A43F48063036270477047002C0140CA
:103F3000003401401A4A062918D8DFE801F00417B6
:103F400008170C171000036A23F001030AE0036A44
:103F500023F0100306E0036A23F4807302E0036A8F
:103F600023F48053904203620CD118E0904209D1AF
:103F700003290BD005290DD0012910D1036A23F0A4
:103F800004030AE0074B984209D1F1E7036A23F0E2
:103F9000400302E0036A23F48063036270477047C2
:103FA000002C01400034014006290CD8DFE801F064
:103FB000040B060B080B0A004263704782637047CC
:103FC000C263704702647047064A074B90421B6801
:103FD00004BF064B1B6801EB43034900B3FBF1F33D
:103FE0008360704700380140680000206C000020AA
:103FF000C36808290CBF23F4805343F48053C36083
:104000007047036923F44053194301617047C36843
:1040100023F4C0631943C1607047C36823F00C03E5
:104020001943C1607047436923F4407319434161E8
:104030007047C36843F40053C3607047C1F308017D
:10404000416070474068C0F308007047430903F1BE
:10405000804303F50433196800F01F0001228240F9
:104060000A431A607047430903F1804303F50433A0
:10407000196800F01F00012282401143196019687D
:1040800021EA02021A60704701290BD002D30229EB
:104090000DD070470A4A136803431360536823EA3C
:1040A00000000AE0064A136823EA000302E0044A1B
:1040B000136803431360536818435060704700BF90
:1040C00008040140034A136803431360536818430C
:1040D0005060704700040140014B1860704700BFFA
:1040E00014040140F0B50022012303FA02F4044253
:1040F0002FD01A4CA14216D008D8A4F50064A142D2
:1041000018D0174B994214D1022313E0154B994252
:104110000BD003F58063994209D0A3F5006399425F
:1041200007D1042306E0032304E0052302E006236D
:1041300000E000230C4E22F00304264402F00307A3
:10414000BF0035680F24BC40BB4025EA040423436C
:1041500033600132102AC7D1F0BD00BF0014014006
:1041600000100140001C014008000140034A136890
:1041700023F0070318431060704700BF002002407F
:10418000054A136843F080031360044B044A1A6025
:1041900002F188321A607047102002400420024069
:1041A00023016745024A136843F080031360704798
:1041B0001020024008B5FFF731FAC307FBD408BD51
:1041C00038B505460C4689B2FFF73CFAA81C210C0D
:1041D000BDE83840FFF736BAFEE7704700221849BD
:1041E00018485318834204D2174BD3585350043203
:1041F000F5E7164A934203D200221A600433F8E727
:10420000134A144C136843F400731360124B9C421E
:1042100003D254F8043B9847F8E7104C104B9C42EB
:1042200003D254F8043B9847F8E7FBF7A9FF0D4C7D
:104230000D4B9C4203D254F8043B9847F8E700BF6B
:104240000000002070000020E85C0008801B0020B7
:1042500014ED00E0E85C0008E85C0008E85C000899
:10426000E85C0008E85C0008E85C0008024B20F00D
:104270007F401860704700BF14E000E0044A00F07F
:104280000400136823F0040303431360704700BF66
:1042900010E000E0024A136843F002031360704725
:1042A00010E000E0024A136843F001031360704716
:1042B00010E000E043099B0003F1604300F01F00A1
:1042C000012203F5614382401A607047432893BF7F
:1042D00000F16040044B00F00F0000F564408CBF1B
:1042E000C1540170704700BF14ED00E00A0A0A2AA9
:1042F0002A2A2A2A2A2A2A2A2A0A5472616E736DC5
:10430000697474657220696E697469616C697A6533
:10431000640A0000FFFFFFFF000000000000000033
:10432000434F4E46494720434F52525550544544FF
:10433000000000000000000000000000000000007D
:10434000000000000000000000000000000000006D
:10435000000000000000000000000000000000005D
:10436000000000000000000000000000000000004D
:104940000000000000000000D20400000000000091
:1049500000000000434F4E46494720434F525255F6
:10496000505445440000000000000000000000001A
:104970000000000000000000000000000000000037
:104980000000000000000000000000000000000027
:104990000000000000000000000000000000000017
:1049A0000000000000000000000000000000000007
:105470000000000000000102030405060708090AF5
:105480000B0C0D0E0F101112130D0E0A0D00000063
:1054900054494D454F5554200A00256C7520212153
:1054A00021212120444953434F4E4E454354454406
:1054B0002044554520544F2054494D454F55540ADA
:1054C00000256C7520004346475F444953434F4EC7
:1054D0004E454354207061636B6574206C656E6744
:1054E0007468206973206E6F7420310A0043464748
:1054F0005F444953434F4E4E4543540A0043464789
:105500005F52454144207061636B6574206C656E29
:10551000677468206973206E6F7420340A004346F4
:10552000475F5245414420636F756E74206D7573FB
:1055300074206265206265747765656E2031206134
:105540006E642032390A004346475F524541442089
:1055500072657175657374206F7574206F66206352
:105560006F6E66696720617265610A004346475F36
:1055700052454144206F3D25752C20633D25750A19
:10558000004346475F5752495445207061636B653D
:1055900074206C656E677468206973206C65737322
:1055A000207468616E20340A004346475F575249B1
:1055B00054452072657175657374206F7574206F22
:1055C0006620636F6E66696720617265610A0043D9
:1055D00046475F5752495445206F3D25752C20633F
:1055E0003D25750A004346475F434F50592070617F
:1055F000636B6574206C656E677468206973206ED8
:105600006F7420340A004346475F434F505920527D
:1056100065717565737420736F75726365206F664D
:1056200066736574206F7574206F6620636F6E6695
:10563000696720617265610A004346475F434F50C6
:105640005920526571756573742064657374696E51
:105650006174696F6E206F6666736574206F757410
:10566000206F6620636F6E66696720617265610AEC
:10567000004346475F434F5059207372633D257581
:10568000206473743D257520633D25750A004346EB
:10569000475F524551554553545F544F5F434F4EFA
:1056A0004E454354207061636B6574206C656E6772
:1056B0007468206973206E6F742031380A00434685
:1056C000475F524551554553545F544F5F434F4ECA
:1056D0004E4543542055554944206D69736D61749E
:1056E00063680A004346475F524551554553545F2E
:1056F000544F5F434F4E4E45435420696E76616C64
:10570000696420736565640A004346475F524551EA
:10571000554553545F544F5F434F4E4E4543540AD3
:105720000053657373696F6E20616464726573738F
:105730003A20003A00253032780053657373696F60
:105740006E20686F70206368616E6E656C733A20BE
:1057500000256420004E4F545F434F4E4E45435446
:1057600045443A20556E68616E646C6564207061D2
:10577000636B657420307825782C206C656E6774B7
:10578000682025640A004C42726378010203040514
:10579000060708090011000000080140020001018D
:1057A0005041312F414443310000000000080140C6
:1057B000040002015041322F4144433200000000F6
:1057C00000080140080003015041332F4144433396
:1057D0000000000000080140100004015041342F77
:1057E000414443340000000000080140200005014E
:1057F0005041352F4144433500000000000801406E
:10580000400006015041362F41444336000000005D
:1058100000080140800007015041372F41444337C1
:1058200000000000000C0140010008015042302F30
:105830004144433800000000000C0140020009010F
:105840005042312F4144433900000000000C014018
:105850000800000250423300000000000000000079
:10586000000C014010000002504234000000000013
:1058700000000000000C01402000000250423500F2
:105880000000000000000000000C01404000000289
:10589000504236000000000000000000000C0140F3
:1058A00080000002504237000000000000000000AD
:1058B000000C0140000100025042380000000000CE
:1058C00000000000000C0140000400025042313092
:1058D0000000000000000000000C01400008000271
:1058E00050423131000000000000000000000000C4
:1058F00000000000000000000000000000000000A8
:105900000000000000000000000000000000000097
:105910000000000000000000000000000000000087
:105920000000000000000000000000000000000077
:105930000000000000000000000000000000000067
:105940000000000000000000000000000000000057
:105950000000000000000000000000000000000047
:105960000000000000000000000000000000000037
:105970000000000000000000000000000000000027
:105980000000000000000000000000000000000017
:105990000000000000000000000000000000000007
:1059A00000000000000000000000000000000000F7
:1059B00000000000000000000000000000000000E7
:1059C00000000000000000000000000000000000D7
:1059D00000000000000000000000000000000000C7
:1059E00000000000000000000000000000000000B7
:1059F00000000000000000000000000000000000A7
:105A00000000000000000000000000000000000096
:105A1000000000000000000001010101010102027C
:105A2000030507090B0D12232345780064000000CD
:105A3000345A0008970464002D096400FFFF000039
:105A400046000000485A00082D08320000003200CD
:105A5000750532000000320017043200FFFF00001D
:105A600064000000685A0008970432000000320009
:105A700097043200000032009704320000009600C4
:105A80009704960000003200970496000000320050
:105A90009704960000009600970432000000320040
:105AA000970432000000320097043200FFFF00002C
:105AB00064000000B85A00082D08320000003200CF
:105AC0002D093200000032004D0A32000000320081
:105AD000EA0A3200000032002D08320000003200D5
:105AE0002D093200000032004D0A32000000320061
:105AF000EA0A3200FFFF000064000000005B0008BB
:105B00000B025000EE015000B80150008801500017
:105B10005D0150000B025000EE015000B801500032
:105B2000880150005D0150004A01500026015000DC
:105B300006014001FFFF000064000000405B000818
:105B4000EA0A3200000032004D0A32000000320042
:105B50002D093200000032002D0832000000320012
:105B6000EA0A3200000032004D0A32000000320022
:105B70002D093200000032002D083200FFFF000026
:105B800050455253495354454E545F53544F52411C
:105B900047453A20736176696E6720636F6E666968
:105BA0006720746F20666C617368202E2E2E0A00A9
:105BB00050455253495354454E545F53544F5241EC
:105BC00047453A20736176696E67206C6F67696339
:105BD000616C20696E7075742076616C75657320D8
:105BE000746F20666C617368202E2E2E0A0050455B
:105BF0005253495354454E545F53544F52414745B5
:105C00003A20646F6E6520736176696E6720746FE9
:105C100020666C6173682E0A00414C4552543A204C
:105C20004D41585F5359535449434B5F43414C4C8A
:105C30004241434B53206E6565647320746F20624C
:105C40006520696E63726561736564210A000000F6
:105C50000400002000000000000000000000000020
:105C60000000000000000000000000000000000034
:105C70000000000000000000000000000000000024
:105C80000000000000000000000000000000000014
:105C90000000000000000000000000000000000004
:105CA00000000000000000000000000000000000F4
:105CB00000000000232D302B2000686C4C0065662E
:105CC000674546470030313233343536373839414D
:105CD0004243444546003031323334353637383963
:085CE000616263646566000067
:105CE8000400002000000000745C0008945C0008B8
:105CF800545C0008000000000000000000000000E4
:105D0800000000000000000000000000000000008B
:105D1800000000000000000000000000000000007B
:105D2800000000000000000000000000000000006B
:105D3800000000000000000000000000000000005B
:105D48000000000000127A0000127A0000127A00A7
:10E000000000000000000000000000000000000010
:10E010000000000000000000000000000000000000
:10E0200000000000000000000000000000000000F0
:10E0300000000000000000000000000000000000E0
:10E0400000000000000000000000000000000000D0
:10E0500000000000000000000000000000000000C0
:10E0600000000000000000000000000000000000B0
:10E0700000000000000000000000000000000000A0
:10E080000000000000000000000000000000000090
:10E090000000000000000000000000000000000080
:10E0A0000000000000000000000000000000000070
:10E0B0000000000000000000000000000000000060
:10E0C0000000000000000000000000000000000050
:10E0D0000000000000000000000000000000000040
:10E0E0000000000000000000000000000000000030
:10E0F0000000000000000000000000000000000020
:10E10000000000000000000000000000000000000F
:10E1100000000000000000000000000000000000FF
:10E1200000000000000000000000000000000000EF
:10E1300000000000000000000000000000000000DF
:10E1400000000000000000000000000000000000CF
:10E1500000000000000000000000000000000000BF
:10E1600000000000000000000000000000000000AF
:10E17000000000000000000000000000000000009F
:10E4000001000000FFFFFFFFFFFFFFFF556E636F7E
:10E410006E666967757265642054580000000000DC
:10E4200000000000000000000000000000000000EC
:10E4300000000000000000000100FE01AA07340DEA
:10E4400000000000000000000000000000000000CC
:10E450000000000001004E029707A80C0000000019
:10E4600000000000000000000000000000000000AC
:10E4700003009E0200082A0D0000000000000000BA
:10E480000000000000000000000000000100440245
:10E490005207520D000000000000000000000000C4
:10E4A000000000000000000000000000000000006C
:10E4B000000000000000000000000000000000005C
:10E4C000000000000000000000000000000000004C
:10E4D000000000000000000000000000000000003C
:10E7A0000000000001000000000000000000000068
:10E7B0000000000500000000010000010000000052
:10E7C0000000000000000006000000000100000240
:10E7D0000000000000000000000000030200000034
:10E7E0000100000300000000000000000000000421
:10E7F0000100000000000000000000000000000018
:10E800000000000000000000000000000000000008
:10E8100000000000000000000000000000000000F8
:10E8200000000000000000000000000000000000E8
:10E8300000000000000000000000000000000000D8
:10EA200000000000B80B0000640000001027000088
:10EA30002C010000D2041E00FFFFFFFFFFFFFFFFBD
:10EA4000556E636F6E6669677572656400000000DD
:10EA50000000000000000000000032320000000052
:10EA6000000000000000000600000000006400003C
:10EA70000100000000000000000000000000000095
:10EA80000007010000000064000001000000000019
:10EA90000000000000000000000000040200000070
:10EAA0000064000001000000000000000000000001
:10EAB00000000000000503000000006400000100E9
:10EAC0000000000000000000000000000000000046
:10EAD0000000000000000000000000000000000036
:10EAE0000000000000000000000000000000000026
:10EAF0000000000000000000000000000000000016
:10F4800054F2FFFFB80B0000C0F9FFFF10B6FDFFFC
:10F49000F0490200200300000000000048F4FFFFD4
:10F4A000AC0D000068F7FFFF10B6FDFFF049020049
:10F4B0000CFEFFFF00010000F0D8FFFF1027000046
:10F4C0000000000010B6FDFFF0490200000000003F
:10F4D00000000000F0D8FFFF10270000000000002F
:10F4E00010B6FDFFF049020000000000000000001F
:10F4F000F0D8FFFF102700000000000010B6FDFF4D
:10F50000F04902000000000000000000F0D8FFFFFA
:10F51000102700000000000010B6FDFFF0490200B7
:10F520000000000000000000F0D8FFFF10270000DE
:10F530000000000010B6FDFFF049020000000000CE
:10F5400000000000F0D8FFFF1027000000000000BE
:10F5500010B6FDFFF04902000000000000000000AE
:10F56000000000000000000000000000000000009B
:0CF570000000000000000000000000008F
:04000005080041DDD1
:00000001FF
