:10000000008000202D2A00006D2A00006F2A0000C9
:1000100000000000000000000000000000000000E0
:10002000000000000000000000000000712A000035
:100030000000000000000000732A0000752A000084
:10004000772A00005D210000E9120000772A0000F5
:10005000772A000000000000772A0000772A0000BD
:10006000772A0000E90E0000772A0000690C0000E2
:10007000772A0000610B0000772A0000772A000031
:10008000772A0000772A0000772A0000772A0000EC
:10009000BD240000772A0000772A0000772A00009C
:1000A000772A0000772A000000000000000000000E
:1000B0000000000000000000000000000000000040
:1000C00010B5064C2378002B07D1054B002B02D02E
:1000D000044800E000BF0123237010BD840000200D
:1000E000000000002C430000084B10B5002B03D08B
:1000F0000749084800E000BF07480368002B00D10B
:1001000010BD064B002BFBD09847F9E7000000001C
:10011000880000202C430000800000200000000028
:10012000164B002B00D1144B9D46402292029A1A86
:10013000924600218B460F461348144A121A00F0CB
:1001400065F80F4B002B00D098470E4B002B00D0CA
:1001500098470020002104000D000D48002802D01F
:100160000C4800E000BF00F02DF82000290000F04E
:1001700073F800F011F8C04600000800008000206D
:1001800000000000000000008400002094180020FF
:100190000000000000000000084B10B50400002B18
:1001A00002D0002100E000BF054B1868836A002BD5
:1001B00000D09847200000F031F8C0460000000051
:1001C000703F000070B500260C4D0D4C641BA41050
:1001D000A64209D1002603F0BFFE0A4D0A4C641B5B
:1001E000A410A64205D170BDB300EB589847013664
:1001F000EEE7B300EB5898470136F2E778000020AD
:1002000078000020780000207C0000200300821885
:10021000934200D1704719700133F9E7FEE7C046F9
:10022000024A1368013313607047C0466409002016
:1002300010B50378022B06D0012B00D010BD044866
:1002400000F078F8FAE74168024800F073F8F5E743
:10025000A03F0000883F000080238022002130B5AD
:10026000DB0552009950013189B019609958002975
:10027000FCD0A3220121D2009950822200205200FA
:10028000985099608023DB0599580029FCD0164CC2
:10029000164A0021200000F093FC0121200000F00C
:1002A000D1FC200000F0C2FC01A80200104B32CBB0
:1002B00032C2104B104A049380239B00059307938E
:1002C000FE3B0692FF3B0D4A04A901F00FFA0C4BCE
:1002D00000211B68986802F063FD00F03BFB00F012
:1002E00093F920BFFBE7C046803F000021020000D9
:1002F000743F0000A0000020A00200203102000096
:100300000000002010B50378012B09D0022B06D184
:10031000054B06481A68064B1A6002F075F910BDC5
:1003200002F01EFAFBE7C0466409002064180020B2
:10033000C40400200FB4F0B5C64600B582B008ADC5
:1003400008CD00279846134C20227821661C2000F7
:10035000FFF75CFF1F212B004246300027700195FC
:1003600002F006FE3000E77702F0D0FD0230C1B2A5
:1003700001290AD0084A200000F08CFB02B004BC1E
:100380009046F0BC08BC04B018472378302BF1D15C
:10039000F4E7C046A0040020792D000070B50400E9
:1003A0000E00002827D002F081F8051E06D102F0C9
:1003B000B1F90028FBD10025002C0AD0601C02F006
:1003C00007FA00282CD10121200002F043FA00286E
:1003D00021D17D2E15D9002D00D070BD02F0C0F9BD
:1003E00002F0D6F902F04AF90028F6D001001448CC
:1003F000FFF7A0FFF1E77D291DD802F057F8051E91
:10040000D5D0300002F08EFA0028E4D001000D486B
:10041000FFF790FFDFE701000B48FFF78BFFD8E7FE
:1004200001000A48FFF786FF0121200002F012FABE
:100430000028CED0EFE70648FFF77CFFCDE7C046A7
:1004400020420000FC410000D8410000B041000003
:1004500098410000F0B5D6464F464646C0B58AB032
:100460000400252200216846FFF7D0FE6B46227863
:10047000581D611D1A7002F075FC6B465B79312BBB
:100480000DD0642B02D10122294B1A70684602F06C
:1004900055F80AB01CBC90469946A246F0BD237898
:1004A000122B03D02348FFF745FFEFE76B464F21A0
:1004B000981DFFF773FF0E21052269441E4802F0C4
:1004C00051FC6B469D7D5B7D1C4E994601239846F1
:1004D0006023340000279A4643462B406D08002BCA
:1004E00002D053465D40EDB24B467F21E81802F042
:1004F00033FCC8B22070002F0BD033788342EBD08E
:10050000731C04E001335A1E12788242E4D09C42EC
:10051000F8D14529E0DC01370134142FDCD1084B38
:100520001A68084B1A600122074B1A70AEE7C046E2
:10053000710500206C410000C8040020D004002098
:1005400064090020C40400207005002070B5264B0B
:100550001B78002B00D170BD244C14212078013071
:1005600002F0FAFB224B21705E5C01F09FFF041E3B
:100570001CD0204D681C02F02BF900282ED101213F
:10058000280002F067F9002823D17D2E17D9002C0E
:10059000E1D102F0E5F802F0FBF802F06FF8002874
:1005A000D9D001001448FFF7C5FED4E702F0B2F835
:1005B0000028DED002F0AEF80028F7D1D9E73000ED
:1005C00002F0B0F90028E2D001000C48FFF7B2FEBB
:1005D000DDE701000A48FFF7ADFED6E70100094854
:1005E000FFF7A8FECBE7C046C0040020E4040020CB
:1005F000D0040020C804002020420000FC4100007C
:10060000D8410000B0410000F0B5C64600B58CB03E
:100610006B46B34DDC1DB34E05E02178280000F099
:10062000FBF9002842D1200001F0B2F80028F4D0F4
:10063000AD4C2178002900D19AE0012900D192E047
:10064000AA4AAB4800F026FAAA4D2B78002B45D0D9
:10065000A94E14213078013002F07EFBA74B317097
:10066000A748595CFFF79AFE0023A64AA649002036
:1006700000F076FFA54B1A78002A00D0EDE06179F2
:10068000492933D02278522900D1FAE0572900D1E4
:1006900008E1432900D0FFE0072A27D09C4B9D4862
:1006A0001968FFF747FE2B789B4E21E00D206A79F1
:1006B00002AB2968684498461A7002F053FB72B680
:1006C0007768317A781C02F05DFA3368994200D07D
:1006D0007BE062B6280000F09BF9A4E761792278FC
:1006E000302900D194E08D48FFF724FE2B788A4E04
:1006F0008B4A8C4910688C4F086039681160002B58
:1007000000D17DE00278002A09D04279722A00D116
:1007100088E0772A00D1B0E0632A00D18BE038600E
:10072000704A90464146126849688A4200D16CE09E
:100730004346DB68D1009C468918890089186144CA
:10074000252202F00FFB43461B68581C4346197ACA
:1007500002F018FA434638681960FFF77BFE2B78E1
:100760000022227007E06379302B00D068E76BE746
:10077000604D694E2B78002B09D09620800084466E
:100780006A4B634A1B68116863448B4257D33378C2
:10079000002B16D0962080008446644B5C4A1B6870
:1007A000116863448B420CD211686148FFF7C2FDA7
:1007B0000023564A4F215F48337013702B70FFF7A8
:1007C000EDFD0CB004BC9046F0BDF368F8009C460B
:1007D000C0198000C01960442522414602F0C2FAC7
:1007E0007368317A581C02F0CDF9716062B671E716
:1007F0004B4B4C4A18684C4F10603A68464E1A6092
:1008000038600023002800D08AE700220270A7E7A2
:10081000012A52D01B2AEBD04748FFF78BFD2B78DB
:100820003D4E65E76279522A00D178E73860FFF7DC
:1008300011FE2B7894E76279432AF7D16FE71168AC
:100840003E48FFF777FD0023304A4F213948337087
:1008500013702B70FFF7A2FD99E700222E4E4F2157
:1008600034481A7032702A70FFF798FD284B3448CC
:100870001968FFF75FFD2B783AE76279572AD5D1DF
:100880004DE7032A00D931E7214B2E481968FFF7BD
:1008900051FD2B78204E2BE72B48FFF74BFD2B7893
:1008A0001D4E25E7042A00D120E7194B2748196877
:1008B000FFF740FD2B78184E1AE71449164E2A70A0
:1008C0000D4A0B70137033700C4B0D481978FFF7FD
:1008D00065FD0F4B1E481968FFF72CFD2B7807E7C5
:1008E000E80400205018002064180020792D000032
:1008F00069180020C0040020E4040020D004002077
:10090000C80400204C1D00004D05000071050020AA
:10091000640900205840000070050020C840000015
:10092000601800208C1800204C180020C4040020FF
:100930002441000064410000A0400000FC40000091
:10094000E83F0000FC3F0000CC4000002C400000CD
:100950008040000030B587B06A46204B6C4623CB00
:1009600023C223CB23C2012363701D4B1D49019376
:100970001D4B0022D96064211A6019725A601B4B0A
:100980003F395A5425315A54194922750A701900B1
:100990001A70184A25311360174A4A331160174AF2
:1009A00017481360174B03608023037100F030F881
:1009B00000F0C4FD684601F005FC041E02D02000D2
:1009C00007B030BD4F211048FFF7E8FC01F056FE9C
:1009D000041EF4D10D48FFF7ADFCF0E7B03F000076
:1009E000050300006809002050180020DC170020D3
:1009F000641800204C180020601800208C1800207B
:100A0000E8040020F004002064410000C83F00001A
:100A100000238371437170478379032B17D0022B16
:100A20000DD0C02921D0DB290DD0012B16D10023F8
:100A30008371DC292CD0DD2910D1DB210EE0C02907
:100A40001AD000207047012383710020FAE70023A9
:100A500083714371C02908D0DB29F4D0437902792E
:100A60009A420ED802238371EBE74379002BE8D03A
:100A7000032383710120E5E7002383714371002084
:100A8000E0E70268D1544379013343710020D9E78C
:100A9000C021E3E770B504000E00151E01D0002947
:100AA00000D170BD013EF6B2C02001369047A619B4
:100AB00006E0DB20A847DD20A8470134B44208D077
:100AC0002078C02808D0DB28F3D00134A847B442EE
:100AD000F6D1C020A847E4E7DB20A847DC20A847E0
:100AE000EBE7C046F0B500281EDB1B4A0324944602
:100AF000FF2217008308C026C0B20440E400890129
:100B0000A7400A40A2409B006344B6009D59BD43E4
:100B10002A439A511F23C02118401E3B83400E4A8E
:100B2000490053501360F0BDFF240C4A032594463E
:100B300022000F23C0B20540ED008901AA400C40FD
:100B4000AC400340083B9B089B006344DE6996432E
:100B50003443DC61DEE7C04600E100E000ED00E088
:100B600010B5134B1A68002A05D0C221114A89001A
:100B70005158C90700D410BD00211960A123DB0022
:100B80000D4CD158201DC9B200F096FCE1682289B5
:100B900023695B1A9A4207D2C222012305499200B7
:100BA0008B50064A1360E6E70428E4D1F4E7C04618
:100BB00000D1004000D000407405002004D0004067
:100BC00070B505000C00002A0DD04079144B81004F
:100BD000CA504300002C1ED0124E1B189B5D0820EB
:100BE000002B02D070BD0720FCE70420A178285616
:100BF000FFF778FFA12322882968DB00CA506A79B1
:100C0000217953009B18F2185170E17800209170FF
:100C100001229A55E6E71C18034A64001419DBE721
:100C2000940500209005002040420000012202218E
:100C300003681A60427953009B18014A995470471F
:100C4000900500208023002210B504685B00E2506C
:100C5000D1220468FF3B9200A350002902D0016812
:100C6000403A8B5010BDC046C12210B5414B920096
:100C7000995880225202114203D03F490868002847
:100C800048D1C1223B4B92009958802292021142D6
:100C900003D03A490868002848D1C122354B920058
:100CA00099588022D202114203D0354908680028A1
:100CB00048D1C1222F4B9200995880221203114231
:100CC00003D030490868002848D1C122294B92003E
:100CD0009A58D20704D5802252009958002912D17F
:100CE000C122244B92009A58920704D582225200C6
:100CF0009958002900D110BD00219950224B0520A0
:100D00001B689847F7E7002199501F4B04201B6888
:100D10009847E5E7D22080001A5040381A50002347
:100D20000B60194B00201B689847AAE7D22080006F
:100D30001A5040381A5000230B60134B01201B68D7
:100D40009847AAE7D22080001A5040381A50002352
:100D50000B600D4B02201B689847AAE7D220800049
:100D60001A5040381A5000230B60074B03201B68B1
:100D70009847AAE700B0004040B1004044B10040AD
:100D800048B100404CB1004094050020F8B54746FA
:100D9000CE4680B50579314E6B0098465B199B00B5
:100DA000F3181B7A04000F000820002B03D00CBCA2
:100DB00090469946F8BD002A4AD000294AD04346B9
:100DC0005B199B00F2507A68F3185A60627900232D
:100DD0000021002A0BD020689A0084464132FF325D
:100DE0006244116001336279DBB29A42F3D823681E
:100DF000F978180B40B2FFF775FE012223681849F5
:100E0000454458587B789043134003432068AD0015
:100E10004350A123DB009C4661462368761958584D
:100E2000032399464946BB7888430B4003436046F9
:100E300021680B500F239C463B7867462468083096
:100E400021583B40B9430B43235032720020AEE798
:100E50000720ACE7034FEB00FF18B0E79805002030
:100E60000405000048420000012203681A6002796C
:100E700053009B18024A9B00D31802221A72704733
:100E800098050020012203681A6070470122036858
:100E90005A60704701220368DA607047F0B5022794
:100EA00005AC2478FF37A44680248F400668A40050
:100EB0003559BD43355105682E5933432B51802395
:100EC00064465B028B40002C09D1C2240568A40053
:100ED0002B5151310368FF318900CA50F0BDC12444
:100EE0000568A4002B51F4E710B5264B1A68002AB8
:100EF00005D0C122244992008A58D20327D4234B1B
:100F00001A68002A05D0C1221F4992008A5892030C
:100F100026D41F4B1A68002A05D0C1221A49920014
:100F20008A58520325D41B4B1A68002A05D0C122C7
:100F3000154992008A58120300D410BD0022A62041
:100F40001A60154B400059681B689847F5E7002266
:100F5000A0201A60104B400059681B689847CEE7E4
:100F60000022A2201A600C4B400059681B68984769
:100F7000CFE70022A4201A60074B400059681B6885
:100F80009847D0E7409100400090004044910040D5
:100F9000489100404C91004098050020F0B5D6469D
:100FA0004F464646C0B53B4C0300E27E0820002A6F
:100FB00004D01CBC90469946A246F0BD002B65D0DB
:100FC000186801328240A020A125C005ED004251E1
:100FD000A94603251A68AA46C132FF32920015506D
:100FE00000255A68AC46C132FF32920015509F6905
:100FF000294A2A4D57511F7D5D7D3D43284FD551CC
:101000005D681F68A846274D57514746264D5751E2
:101010001D7D012D19D19F683E00E0277F00B84655
:101020004644B70066463E50DE68B5404E468551A0
:101030005646DD68C135FF35AD002E504E46D868A6
:101040009D689051A220C00015501A69616022600D
:1010500000290DD0197F0023144A15481360154A42
:101060001360C1230C4A9B00D0500220FFF73AFDC9
:10107000A0230421084ADB00D15000230122E3759C
:101080002376A375E276A376002092E780220A4BAE
:10109000920098E7A40500200020004024050000ED
:1010A0006C0500000C050000140500001C21004028
:1010B000800002004421004050420000F0B5254A63
:1010C0000400937D1120002B00D0F0BD0125917507
:1010D00021482249938294600B6005600B60938ADB
:1010E0001F4EE05C938A1F4D01339BB29382705177
:1010F00053680020002BE8D1802000274000947D19
:10110000938A9C4203D812E0938A834202D00B68F0
:10111000002BF9D0938A8342F2D00F60938A9468AF
:10112000E45C938A01339BB293827451E7E7802396
:10113000918A5B0099420AD008490B68002BFCD0C9
:1011400001210020084B196000239375BDE70F2093
:10115000FAE7C046A4050020082000401C210040FA
:10116000002000401C0500000C200040024B987D30
:10117000431E9841C0B27047A4050020F0B5D64682
:101180004F464646C0B5474B5A68002A05D08126CF
:10119000C224454DB600A4002E51DC7D002C0DD09C
:1011A0001C7E002C1FD0002A00D179E08121C123B0
:1011B0003D4A89009B00D15011200FE0D975997EDE
:1011C000D8605C761C76002948D0002A0FD0812197
:1011D000C1230020344A89009B00D1501CBC90469A
:1011E0009946A246F0BD18611976002AEFD12F4F1B
:1011F0002F4E3A602F4ABA4694462B4A9146A32274
:10120000D20090466246146835682200511E8A4119
:1012100051460868D2B201004F1EB941C9B2002D33
:1012200003D1002801D1002CECD0002A2BD10029B9
:1012300029D1D87D00281AD1326041464A465258F9
:101240005A7ED97D9142DDD80022DA759B7E002B33
:101250001FD00122144B00201A60BFE7154A11600D
:10126000134A11600121104A11605A68ADE73160DC
:10127000404649465A7E0958D86881545A7E013200
:10128000D2B25A76DCE70022DA75002C06D00320B1
:10129000A4E70122084B00201A609FE70F209DE77A
:1012A00011209BE7A40500200020004044210040BD
:1012B000082100402421004004200040064A937E7B
:1012C000002B07D105490B6005490B600549013327
:1012D0000B6093767047C046A4050020242100408F
:1012E0000821004000200040C12210B5604B920050
:1012F0009A5884B092054DD55E4A1168002949D0AC
:10130000002111608121C2228900920099505A4B1C
:101310009A7E002A02D10121584A116002226946B0
:101320000A7090215248C9004258425069460392BF
:10133000DA7D68460A72DA68196801920022DA7565
:101340001A765B6898474E4A1368002B10D04A4BB8
:10135000988A997D81424FD9002111609A8A9968B3
:10136000895C9A8A013292B29A82464B404AD150A5
:10137000454B1A68002A0BD000221A603E4B9A7E19
:10138000002A02D001213A4A1160DA7D002A42D1B6
:1013900004B010BDC123364A9B00D3585B07D2D599
:1013A0003A490B68002BCED0334BD87D00283FD173
:1013B0000860A321C90052585A7ED97D9142C2D1FA
:1013C0001A7E002A41D19A7E002A02D101212B4A9D
:1013D00011608120C222264980009200885000229C
:1013E00068460121DA755A7E01700272DA6819685E
:1013F00001925B689847A6E7002010600029B7D0EB
:101400006A46107011729A689875196801925B6843
:1014100068469847ACE7002268460121DA755A7E93
:1014200001700272DA68196801925B689847AFE749
:1014300000200860A320C000597E1258D86842548A
:101440005A7E0132D2B25A76B6E7DA751A69D9688D
:10145000DA6000226C46587E1A765A760132207283
:1014600001912270196868465B6898476BE7C0462F
:101470000020004024210040A4050020042000405A
:101480001C2100401C0500004421004008210040B0
:1014900010B500290DD00923002A01D1180010BD74
:1014A000541E2240FAD1826001608480C260002311
:1014B000F4E70E23F2E7C046030010B59C8880686D
:1014C000DA68121A0420944200D210BDDA680020B3
:1014D00014401A681155DA680132DA60F5E7C0463F
:1014E00010B58468C26803000520944209D09A6848
:1014F000988802401868825C00200A709A6801325D
:101500009A6010BDA02310B55B00984208D1074B2C
:101510001B78002B05D0064B1868064B1B689847B4
:1015200010BD0222044B1A70F5E7C046C00500202A
:10153000C8050020C4050020C105002010B5054ADB
:1015400000210548FFF722FC002802D10122034BAD
:101550001A7010BD0515000070420000C105002082
:10156000F0B54F464646D646C0B5040082B00D00E1
:1015700016001F0000290AD001280AD00720002CDD
:101580002FD002B01CBC90469946A246F0BD0E205A
:10159000F7E7012399461E4B082098461B78002B3D
:1015A000EFD0032B24D0022B2ED01A4B9A461A4B85
:1015B00050461C70194B32001D60194B00211F60F2
:1015C000012300934B46FFF769FC43461B785046C6
:1015D000022B0AD0FFF748FC032342460020137079
:1015E000CFE780235B009946D5E7FFF74BFCF3E795
:1015F000084B18009A46FFF749FC02234246137035
:101600005046FFF747FCD2E7024B9A46F8E7C04640
:10161000C105002070420000C0050020C405002064
:10162000C805002030B5047885B0012C19D0022CF3
:1016300034D0002C01D005B030BD274D274C2900F7
:101640002000FFF74DFF002823D0A268E3689A42EC
:10165000F1D1032302AA1370214B10001B68984795
:10166000E9E743681F4D19782800FFF725FF002898
:1016700022D1AA68EB689B1A012B25D0A968AA88F9
:10168000EB685B1A9A42D6D301211748FFF776FD23
:10169000D1E701212800FFF711FDD6E702AB1C704E
:1016A000C3680121104801930393FFF767FD0C4BBA
:1016B00002A81B689847BEE702AB1C70084B03905A
:1016C0001B6802A89847D9E702AB1870044B02A820
:1016D0001B689847D2E7C046F4050020E0050020CB
:1016E000CC050020D0050020F0050020F0B51E003C
:1016F000214B050089B00C001A600720002906D094
:101700008A881E480968FFF7C3FE002801D009B087
:10171000F0BDA289A1681A48FFF7BAFE0028F6D1E9
:101720006A46184B684692CB92C292CB92C212CBB9
:1017300012C2AB6806932B7906775A1E9341037544
:101740006B790E22591E8B415B421A404275EB7831
:101750000293AB7803932B7801936B7800930A493B
:10176000FFF71CFC0028D2D1FFF7A8FD0121074894
:10177000FFF704FDCBE7C046CC050020D0050020D4
:10178000E00500207842000025160000F00500204A
:1017900070B50A4C0500A168A288E3685B1A9A42FA
:1017A00004D029002000FFF79BFE70BD01210448F2
:1017B000FFF7E4FC0028F4D00520F6E7D005002070
:1017C000F005002070B50D4D01002800FFF774FEF4
:1017D000041E01D0200070BDFFF7C8FC0028F9D11D
:1017E000074E28003100FFF77BFE0028F2D10121CF
:1017F0003000FFF763FC0400ECE7C046E005002082
:10180000F405002070B516000C008D18002A05DDC7
:1018100020780134FFF7D6FFAC42F9D1300070BD1B
:1018200010B50C002000FFF7B3FF0528FAD0012007
:1018300010BDC0460649074A074BCA50074B084A25
:101840005B7C013B1B041343A322D2008B507047E7
:101850000010004006000300140500006400002092
:101860002000000109490A4A0A4B10B5CA50040079
:1018700002028020084B40045B7C2043013B1B0498
:1018800010431843A323DB00C85010BD00100040D4
:1018900000010100140500006400002014228023D0
:1018A0001A48FF329B0070B5C250A822184BD200D4
:1018B0001968184B184C99501849E0258A896D0110
:1018C000823A1A510122A024DA60002264001A51DF
:1018D00004341A51124B134C1D5180250434AD01B0
:1018E0001D5186235B00C2500B78002B03D10E4B99
:1018F00000201B6898470B4B044A0C49D1500C4AF6
:101900000C4B1A6003220C4B1A7070BD0010004083
:101910004809002000A0004044050000F805002010
:1019200000F0014004050000540900208807002051
:10193000691B000050090020200600201822802387
:1019400010B5094CFF329B00E250084BD87C084B85
:101950001B689847074A084BE250084A084B1A6030
:101960000422084B1A7010BD00100040F80500203A
:10197000540900208807002004050000151D000000
:101980005009002020060020F0B5C646012200B50F
:10199000434B444E1A60444A536A9B009958316045
:1019A000CB78002B2DD00123404F3A7D3D785A4013
:1019B0009046002D2BD0012D4DD1404601220B78B1
:1019C0003B4C424023700B79A01C5B0013436370B7
:1019D0000A78053101F0C6F94346002B25D11421C0
:1019E0008022344BFF319200995004390532FF397F
:1019F000FF329950304B314A31681A60304B1D70BC
:101A00002AE00123294F98463D78002DD3D12D4B54
:101A100008781B6898473168254C0B7965702370EE
:101A20000A78A01C053101F09DF91C218022214B70
:101A3000FF31920099500B390532FF39FF3299502E
:101A4000FA89214B31681A60204A1B4B1A60022226
:101A50001B4B1A7000E0164C4878164B1C4A9850E5
:101A60004A78012108009040A622D2009850194AD5
:101A7000D07CA122D2009850174A02209C50C0244A
:101A8000164A64001051106000220330FF301A50D3
:101A900004301A5008301A50196004BC9046F0BD4A
:101AA0001C0600204C090020D0070020F80500206B
:101AB000240900200010004050090020AD1F000044
:101AC0002006002054090020300600209D18000048
:101AD0002C050000640000200405000000E100E087
:101AE00070B51D4C0600A36A0D000020072B22D8FC
:101AF0001A4B1A78012A26D05A78002A1CD1236A58
:101B000017499B00E05802700231053001F02AF9B4
:101B1000A921236A13489A00A258C9005670415857
:101B2000013391701571072B00D900230120236226
:101B3000A36A0133A36270BD226A09499200A058CA
:101B4000DA7C0270E0E706490A78202AF3D8236A93
:101B50009B00E0580270D7E734060020F80500200B
:101B60008807002000100040A122E023862070B5E5
:101B700056495B01D2008B50554B40001858002845
:101B800032D08020C0001B58002B2DD00120514B9B
:101B9000514E586080239B018B5033684F4D034357
:101BA00033604F4B4F4C1A68EB899B1A4E4A0133F6
:101BB0001360A36A002B5CD12B78002B00D16BE063
:101BC0004A4B1B78002B00D070E0A36A002B63D037
:101BD0002B7C012B60D080218023454A49035B0088
:101BE000D150FFF7D1FE20E03D4A1368591E116025
:101BF000002B1BD10121374A80205160A12233499B
:101C00008001D20088500220344A3749D2890132FB
:101C10000A6031490A6802430A608021354A490353
:101C200013700133324AFF33D15070BD1C22802320
:101C3000274CFF329B00E2502F4B80251B68AD01E3
:101C400018782E4B1B6898472D4A2E4B2E49A350CF
:101C50002E4B1E4819600221264B19701D4B01396D
:101C600019608550A22252009B58002BDDD02160C4
:101C7000DBE780221E4901308850013BA362636A82
:101C80000133072B00D9002302226362184B1A602C
:101C90002B78002B99D093E70022164B80211A70E5
:101CA0008023134A49035B00D150BEE7184B084A12
:101CB0000021D058C0B2FFF713FF002800D184E7FD
:101CC00004223368134333607FE7C04600F00140CD
:101CD0000010004000A0004018060020F805002079
:101CE00030060020D00700201C06002088070020B6
:101CF00000E100E0200600204C09002054090020EB
:101D000004050000240900209D180000500900204F
:101D10002C050000F0B5D6464F4646468023C0B598
:101D2000914CDB00E55882B0002D53D08F4B9B6A5D
:101D3000072B00D9C4E08123DB00E5588C4E8D4B86
:101D4000AD00E258735B9A4268D0012700208A4BAD
:101D50005A789846530871198B70834C854BE35819
:101D60007353864B197D002903D001218946114206
:101D70005FD11C2480217C4A8900FF34545069467D
:101D80001B78CB719946CB79002B00D1AFE0012BAA
:101D900000D085E07A4B996A00290CD05C6AA44691
:101DA000A4001C59A2468124E400125954466478C8
:101DB000944200D1A9E0002291467319DA70714B68
:101DC00000201B6898474B466F4C237043465B7856
:101DD000637066E014228023FF329B00E250674B61
:101DE000D87C684B1B689847684B634AE25088224E
:101DF00001235200A5502361A358002BFCD00023DF
:101E0000A35018228023FF329B00E250012363601D
:101E100002B01CBC90469946A246F0BD564B7119C3
:101E20005A7889789846530899426BD00127002048
:101E300091E714218022FF319200A150D87C514BB0
:101E40001B6898474246514B8821E25000234900C5
:101E500063504B4623616258002AFCD00022625036
:101E600018218022FF319200A15001226260002FD0
:101E7000CED081233C4ADB00D0587519A978C0B276
:101E8000FFF72EFE0028C3D00421414A13680B43FC
:101E90001360802180233F4A49035B00D150B7E79C
:101EA000394C05223C4B1A7081222F4BD200995895
:101EB0003A4A9950354A9C50394A3A4B1A60D6E70B
:101EC00014228023FF329B00E2502C4BD87C2D4BF8
:101ED0001B6898472D4B284AE25088220023520065
:101EE000A35001332361A358002BFCD087E7254B77
:101EF00000201B6898474346234C1B7823704B46B1
:101F00006370CEE70027012025E77219D278002AF6
:101F100010D000280ED162460132072A20D85A621A
:101F200001399200996201249B5819489A46016828
:101F30002143016001227319DA7052461A4B10785E
:101F400099461A600F4B1B6898474B4619680E4C10
:101F50000B78A01C23700A78053100F003FF35E7E9
:101F600058620022DCE7C046001000403406002022
:101F7000AC0700200C04000088070020F8050020B2
:101F8000D007002054090020240900200405000087
:101F90001806002000E100E0200600202C050000CB
:101FA0003D190000500900204C090020F0B5C6463C
:101FB000012100B5584A13680B431360574B9A6AC6
:101FC000002A4ED0022480215548013A44509A629A
:101FD0005A6A0132072A00D9002202215A62504A65
:101FE0001160996A00293CD080208021400349007B
:101FF00050504C4AFF3911605A6A4B4E9200995822
:102000003160CB78002B38D00123484F3A7D3D78A2
:102010005A409046002D36D0012D58D0444C487877
:10202000444B454A98504A78012108009040A62226
:10203000D2009850414AD07CA122D2009850404A08
:1020400002209C50C024364A6400105110600022C7
:102050000330FF301A5004301A5008301A501960FB
:1020600008E00022374B80211A7080232C4A490354
:102070005B00D15004BC9046F0BD01232B4F984625
:102080003D78002DC8D1304B08781B6898473168DF
:10209000274C0B79657023700A78A01C053100F07D
:1020A00061FE1C218022234BFF31920099500B3995
:1020B0000532FF39FF329950FA89244B31681A6092
:1020C000234A244B1A6002221E4B1A70A7E740468F
:1020D00001220B78164C424023700B79A01C5B0048
:1020E000134363700A78053100F03CFE4346002B31
:1020F000D7D1142180220F4BFF319200995004391F
:102100000532FF39FF329950124B134A31681A6079
:102110000C4B1D7083E7C04618060020D007002036
:1021200000E100E01C0600204C090020F80500201A
:1021300024090020001000402C050000640000204D
:10214000040500002006002054090020300600206D
:102150009D18000050090020AD1F0000802210B51E
:10216000164B52009958002904D0C12189005958B2
:10217000C90720D48622114B52009958002904D057
:10218000C12189005958090712D488220B4B5200EB
:10219000995800290BD0C12189005958C90606D584
:1021A00000219950064B1B68002B00D0984710BDAA
:1021B00000219950E9E700219950DBE70010004029
:1021C00050090020F8B54E46DE4657464546814642
:1021D000E0B5002800D10EE1904F3B78002B00D0F5
:1021E000C5E08F4B8F4D98468F4B904C9B46904B44
:1021F0009A464A468F4E904B526849461A603000C4
:10220000182200F0AFFD00228C4B00211A605846C6
:102210002432FDF7FBFF092200215046FDF7F6FFAF
:10222000B17A874A874BD150A221337AC9005350E3
:10223000012B00D1EEE0002B00D1C4E0022B00D135
:10224000E4E0032B00D1BEE03378002B00D1C1E0E5
:10225000012B00D1D6E07C4B1B68727A78497B4811
:102260000A50022A00D1BFE0012A06D1FF20784A95
:1022700088500820043AFF308850F07C9847754B0E
:10228000002219002531696019004A31A96019003E
:102290006F31E9601900943129611900B931696120
:1022A00019002B600433FF33EB616B4BDE31A96106
:1022B00019002531616019004A31A16019006F31A0
:1022C000E1601900943121611900B9312360616125
:1022D00019000433FF33E361A2230420DE31A1613E
:1022E0005E49DB002A626A62AA6222626262A262BC
:1022F000C850083BCA50802359489B00C850AC20A6
:10230000584B594CC0001C505848C0241950AD219E
:102310005748C900585057485749A4005850574883
:102320000431585056485749574D58505748043172
:1023300058504348564958505649737C08599B0792
:1023400028401B0C03430B510323B57C14342B4052
:10235000FF2508599B01A84303430B5180235B03CE
:102360000B6043461A70012300203B7044E0F021CB
:10237000A1233C4A8901DB00D150294B294D9846C5
:1023800000234246294C13702B626B62AB622362BE
:102390006362A362244B2422002118009B46FDF7B0
:1023A00035FF234B0922002118009A46FDF72EFF26
:1023B00080218023374A4903D15003218133204AA9
:1023C000FF33D15015E74022334B1A603378002B8E
:1023D00000D03DE71C4A314B19491360727A1B4803
:1023E0000A50022A00D03FE72D48194A88502D484C
:1023F000043A885041E70E203CBC90469946A246DC
:10240000AB46F8BD284B104A136026E7FA22224B50
:102410001A6019E73022204B1A6015E710060020D9
:1024200020060020D0070020AC0700203406002042
:1024300024060020F80500201406002018060020BD
:10244000001000400C050000540900203405000075
:102450003C050000FC0700206006002000A00040B2
:102460000202000000F0014000110040640500007D
:102470000411004004A000406C05000040A1004091
:102480001010004074050000FF00FFFF44A1004051
:102490007C05000000E100E048090020651800000C
:1024A000FFFF00002110010035180000024B1878D2
:1024B00043425841C0B270472006002030B51A4B45
:1024C00083B01B680193194B1B78002B01D103B01B
:1024D00030BD022280210020154B164D5A5016495E
:1024E0000C6808601A602B68002BF0D0E20713D448
:1024F000A30708D46307EAD502236A466846137027
:102500002B689847E3E701236A46684613702B68F7
:1025100098476307DBD5EFE76A461070684698472F
:10252000A307E7D5EFE7C0461C06002010060020F1
:1025300000E100E01406002018060020F8B52C4B3E
:1025400005001B780824002B01D12000F8BD0028CD
:102550004BD0037801345A1E1F2AF6D8254E327804
:10256000002A02D1F27C9A42EFD3234F0424BB6AA3
:10257000072BEAD87378002B06D1EB78002B03D019
:10258000337D0234002BE0D0022180231B4AD1503E
:102590003B6A25229B00F858290000F0E3FB032347
:1025A000174A6878115C01310B40135469783B6A13
:1025B000515C9A00BA5801331171072B00D90023DE
:1025C00002223B62BB6A00240133BB620B4B1A60E0
:1025D0007378002BB9D1337C002BB6D1094B1B7813
:1025E000002BB2D1FFF7D0F9AFE70E24ADE7C0461C
:1025F00010060020F8050020D007002000E100E0D0
:10260000240600202006002010B5194B1A78082354
:10261000002A01D1180010BD002826D0154C033B1C
:10262000A26A002AF6D00221134A7B33D150636A92
:102630009B00E1580A7802704B7843700223CB5616
:1026400083700B7905310371053000F08BFB636AF1
:102650000133072B00D9002302226362A36A013BE6
:10266000A362054B1A600023D4E70E23D2E7C046CD
:10267000100600203406002000E100E030B51D49BE
:1026800011200A78002A00D030BD0124C2201A4B44
:10269000644280001C50194D194CF938FF381A500B
:1026A000256018258024FF35A4001D51083D053400
:1026B000FF3DFF341D5104240C70A6241149E40091
:1026C0008D7C1D51CC7CA121C9005C500E490F4C62
:1026D000C0255C5002240E496D004C510C608221D3
:1026E00049005A5004315A501A5001325A600020A1
:1026F000CAE7C0462006002000100040151D00005B
:102700005009002064000020040500008807002014
:1027100000E100E010B50F480378042B02D002203E
:10272000FF3010BD8021002301240B4A8900535043
:102730000931FF316442545008490B608821490037
:102740005350013313615358002BFCD00023037006
:102750000020E6E72006002000100040500900207D
:10276000084B08201B78002B00D1704780230022E3
:1027700005490638C850054B9A621A625A620860C9
:102780000020F2E71006002000E100E0D007002062
:1027900070B50B4B08201B78002B00D170BD0225B3
:1027A00080230022074C0021E550074B07489A621E
:1027B0001A625A622432FDF729FD25600020EDE7F8
:1027C0001006002000E100E034060020AC070020E5
:1027D00010B5164B1A781123002A01D0180010BD2D
:1027E000033B0028FAD0124C01000432200000F014
:1027F000B9FA21680F4B0A091A400F4B0901194019
:102800000A430E4993080B400D4992000A401343B6
:102810000C495A080A400C495B000B4013430B4912
:102820000B4A1BBA8B500023D8E7C0462006002075
:10283000640000200F0F0F0FF0F0F0F0333333334C
:10284000CCCCCCCC55555555AAAAAAAA001000400C
:102850001C050000F0B5C64600B5284B0C001A78E0
:102860001123002A03D0180004BC9046F0BD0028B4
:1028700042D00A3B0829F6D8214F0A003B00083312
:102880000100180000F06EFA08233C741C1BF7339B
:1028900023411C4ABB749046BB681B4C190911406C
:1028A0001A4A1B0113401943194B8808890021401B
:1028B00018400843174E184D410840003140284049
:1028C0000843A4461549164C6050F868474601096C
:1028D00000010240394011438A081A408B006146CA
:1028E0000B4013435A081640A5225B002B4033438C
:1028F000D200A3500023B6E70E23B4E72006002041
:10290000640000200F0F0F0FCCCCCCCCF0F0F0F017
:102910003333333355555555AAAAAAAA24050000C6
:1029200000100040064B1A781123002A01D018002D
:1029300070470A3B7D28FAD8024BD8740023F6E78B
:1029400020060020640000202E4B1B78012B00D0B5
:1029500070472D4B1B681B07FAD1F0222B4B1B68CD
:10296000134027D12A4B1B6813422BD0264B1B68E0
:102970001B07EDD1F022254B1B681340402B2DD0B7
:10298000F022224B1B681340A02B01D0D02BDFD1AB
:10299000F0231F4A12681A42DAD11E4A1368012B2B
:1029A00004D01D4B13601368012BFCD1C0221B4BBC
:1029B0001A60CDE7102B01D0302BDBD1144B1B68F4
:1029C0001342D7D1164A174B1A608022164B1202B7
:1029D0001A600C4B1B78012BC8D0B9E70C4B1B6855
:1029E0001342CDD1C12380220121DB00D205D15079
:1029F000044B1B78012BABD1034B1B681B07BFD0CB
:102A0000A6E7C046E00F00F0E40F00F0E80F00F08A
:102A1000EC0F00F000EC06407593000014EC06404B
:102A2000DFFF07C004050040186C004003210A487E
:102A300002680A430260094802680A4302600849C2
:102A4000084A094B9B1A03DD043BC858D050FBDCF5
:102A5000FFF77AFFFDF764FB2405004054050040B2
:102A6000384300000000002084000020FEE7FEE75D
:102A7000FEE7FEE7FEE7FEE7002243088B4274D341
:102A800003098B425FD3030A8B4244D3030B8B426F
:102A900028D3030C8B420DD3FF22090212BA030C78
:102AA0008B4202D31212090265D0030B8B4219D359
:102AB00000E0090AC30B8B4201D3CB03C01A524179
:102AC000830B8B4201D38B03C01A5241430B8B42C1
:102AD00001D34B03C01A5241030B8B4201D30B03AA
:102AE000C01A5241C30A8B4201D3CB02C01A5241D1
:102AF000830A8B4201D38B02C01A5241430A8B4294
:102B000001D34B02C01A5241030A8B4201D30B027C
:102B1000C01A5241CDD2C3098B4201D3CB01C01A96
:102B2000524183098B4201D38B01C01A52414309A0
:102B30008B4201D34B01C01A524103098B4201D38E
:102B40000B01C01A5241C3088B4201D3CB00C01AFB
:102B5000524183088B4201D38B00C01A5241430873
:102B60008B4201D34B00C01A5241411A00D2014698
:102B7000524110467047FFE701B5002000F0F0F821
:102B800002BDC0460029F7D076E7704703460B43E5
:102B90007FD4002243088B4274D303098B425FD356
:102BA000030A8B4244D3030B8B4228D3030C8B4282
:102BB0000DD3FF22090212BA030C8B4202D3121268
:102BC000090265D0030B8B4219D300E0090AC30B3D
:102BD0008B4201D3CB03C01A5241830B8B4201D3EA
:102BE0008B03C01A5241430B8B4201D34B03C01AD3
:102BF0005241030B8B4201D30B03C01A5241C30A4B
:102C00008B4201D3CB02C01A5241830A8B4201D3BB
:102C10008B02C01A5241430A8B4201D34B02C01AA5
:102C20005241030A8B4201D30B02C01A5241CDD24A
:102C3000C3098B4201D3CB01C01A524183098B4295
:102C400001D38B01C01A524143098B4201D34B017E
:102C5000C01A524103098B4201D30B01C01A5241E1
:102C6000C3088B4201D3CB00C01A524183088B4268
:102C700001D38B00C01A524143088B4201D34B0051
:102C8000C01A5241411A00D20146524110467047C3
:102C90005DE0CA0F00D04942031000D340425340C8
:102CA00000229C4603098B422DD3030A8B4212D388
:102CB000FC22890112BA030A8B420CD389019211BA
:102CC0008B4208D3890192118B4204D389013AD0F7
:102CD000921100E08909C3098B4201D3CB01C01ACC
:102CE000524183098B4201D38B01C01A52414309DF
:102CF0008B4201D34B01C01A524103098B4201D3CD
:102D00000B01C01A5241C3088B4201D3CB00C01A39
:102D1000524183088B4201D38B00C01A5241D9D251
:102D200043088B4201D34B00C01A5241411A00D2D2
:102D30000146634652415B10104601D34042002BCE
:102D400000D54942704763465B1000D3404201B54D
:102D5000002000F005F802BD0029F8D016E7704702
:102D60007047C046002310B59A4200D110BDCC5C1C
:102D7000C4540133F8E70000084B70B51C68050027
:102D8000002C05D0A369002B02D1200000F0F4F93B
:102D90002900A268200000F091FE70BD0000002014
:102DA0004A424A41802310B55200DB0000F002F88D
:102DB00010BD0000F0B51D004F4B85B01E6804002B
:102DC0000F000092002E05D0B369002B02D1300015
:102DD00000F0D2F9494B9C4250D17468009B022B01
:102DE00005D0012B00D984E0002D00DA81E021001C
:102DF000300000F053F9616B002908D02300443300
:102E0000994202D0300000F0C3FA0023636300232C
:102E1000A3616360A3891B0603D52169300000F01C
:102E2000B7FAA389364A1340A381009B022B5AD0DC
:102E300003AB02AA2100300000F034FAA389184342
:102E4000A081002D24D1029D280000F097FA019561
:102E5000071E42D1029B0193AB4239D1012040426F
:102E60000223A2891343A3810023A36023004733D5
:102E7000236023610123636105B0F0BD214B9C42B7
:102E800001D1B468AAE7204B9C42A7D1F468A5E71A
:102E9000002FD9D0B369002B02D1300000F06CF9BB
:102EA000009B012B03D1A389009A1A43A281082019
:102EB000A389276027616561184018D00120184058
:102EC0000023984211D06D42A360A5611800D3E79A
:102ED000019800F053FA071EC0D08023A289019DFB
:102EE0001343A381D6E70020BAE7A560C4E7A0603A
:102EF000C2E701204042BFE700000020B8420000C6
:102F00005CF3FFFFD8420000984200000023C25C3F
:102F10000133002AFBD1581E704730B514009BB016
:102F200005001A00002C05DA8B23036001204042C3
:102F30001BB030BD822368469B0083810023009133
:102F400004919C4200D0631E0293059301236946BD
:102F50005B42CB8128001E9B00F024FB431C01DA5E
:102F60008B232B60002CE3D00023009A1370DFE743
:102F700007B5009313000A00010002480068FFF73C
:102F8000CCFF0EBD00000020F7B58A8905000C00BB
:102F9000130760D44B68002B04DC0B6C002B01DCA6
:102FA0000020FEBDE76A002FFAD000232E682B60B8
:102FB00080235B011A4034D0606DA3895B0706D57E
:102FC0006368C01A636B002B01D0236CC01A020027
:102FD000216A00232800E76AB847A189431C06D16B
:102FE0002B681D2B31D82C4ADA40D3072DD500236E
:102FF000636023692360CB0405D5431C02D12B6891
:10300000002B00D16065616B2E600029C8D02300C1
:103010004433994202D0280000F0BAF900206063DE
:10302000BFE70123216A2800B847431CC5D12B689C
:10303000002BC2D01D2B01D0162B01D12E60AFE783
:103040004023A2891343A381ABE740230B43012014
:10305000A3814042A5E70F69002FA1D00B680F6044
:10306000DB1B01930023920700D14B69A360019BF6
:10307000002B00DC94E7019B3A00216A2800A66A35
:10308000B047002803DC4023A2891343DFE7019BFC
:103090003F181B1A0193EAE7010040200B6970B545
:1030A00005000C00002B01D1002070BD002804D0C9
:1030B0008369002B01D100F05FF80B4B9C4209D1D2
:1030C0006C680C22A35E002BEED021002800FFF7D5
:1030D0005BFFEAE7054B9C4201D1AC68F1E7044B8A
:1030E0009C42EED1EC68ECE7B8420000D842000008
:1030F0009842000010B5024900F0B2F810BDC04679
:103100009D300000002310B504000360436083601D
:1031100081814366C2810361436183611900082292
:103120005C30FDF773F8054B24626362044BA362C5
:10313000044BE362044B236310BDC0464D3B0000CB
:10314000753B0000AD3B0000D93B000070B5682521
:103150004A1E55430E002900743100F063F9041E25
:1031600008D000212A00016046600C30A06068325F
:10317000FDF74CF8200070BD836913B50400002BE7
:1031800028D18364C3640365134B144A1B688262AD
:103190000193984201D101238361200000F020F8BF
:1031A0006060200000F01CF8A060200000F018F81B
:1031B0000022E06004216068FFF7A4FF01220921DA
:1031C000A068FFF79FFF02221221E068FFF79AFF35
:1031D0000123A36113BDC046703F0000F53000001D
:1031E000F8B51E4B07001E68B369002B02D13000F2
:1031F000FFF7C2FF4836B4687368013B04D53368F3
:10320000002B07D03668F6E70C22A55E002D0DD006
:103210006834F2E704213800FFF798FF3060002897
:10322000F0D10C2304003B602000F8BD01232000F6
:103230005B42E3810233A38165662560A56065601A
:1032400025616561A561082229005C30FCF7DEFF7D
:103250006563A563A564E564E6E7C046703F0000CA
:10326000F7B504000700002601914834002C01D175
:103270003000FEBD6368A5680093009B013B00938E
:1032800001D52468F2E7AB89012B08D90E22AB5E89
:10329000013304D029003800019B98470643683564
:1032A000EBE7000070B50E001D000E23C95E90B064
:1032B0001400002907DA00232B60B3891B0611D400
:1032C0008023DB000FE001AA00F07EFD0028F2DB86
:1032D000F022029B12021340054A9B185A425341A6
:1032E0002B60EDE740230020236010B070BDC04686
:1032F00000E0FFFFF7B502268B8905000C00334282
:1033000006D0230047332360236101236361F7BDA7
:1033100001AB6A46FFF7C6FF00990700280000F0DE
:1033200081F8002808D10C22A35E9A05EFD403226D
:1033300093431E43A681E4E70F4BAB628023A2892F
:1033400020601343A381009B20616361019B002BDC
:103350000DD00E23E15E280000F048FD002806D0C5
:103360000322A38993431A0001231343A381A08955
:103370003843A081CBE7C046F530000010B5034BC1
:103380000100186800F04EF810BDC0460000002093
:1033900070B50500002910D00C1F2368002B00DA3F
:1033A000E418280000F065FD1D4A1368002B05D1C4
:1033B00063601460280000F05DFD70BDA34209D970
:1033C000216860188342F3D118685B684118216056
:1033D000EEE713005A68002A01D0A242F9D9196811
:1033E0005818A0420BD12068091858181960824259
:1033F000E0D110685268411819605A60DAE7A042BB
:1034000002D90C232B60D5E721686018824203D1D2
:10341000106852684118216062605C60CAE7C0466B
:1034200058090020032370B5CD1C9D4308350600C4
:103430000C2D1ED20C25A9421DD8300000F019FD1C
:10344000254A14682100002919D1244C2368002B37
:1034500003D1300000F068FB20602900300000F04C
:1034600063FB431C2CD10C233000336000F002FDC1
:1034700003E0002DDFDA0C233360002070BD0B6801
:103480005B1B1AD40B2B03D90B60CC18256003E00F
:103490008C420ED163681360300000F0EBFC20001A
:1034A00007220B30231D9043C31AE7D05A42E25043
:1034B000E4E74B6863600C00EEE70C004968C2E784
:1034C0000323C41C9C43A042E0D0211A300000F02A
:1034D0002BFB431CDAD1C6E7580900205C09002009
:1034E000F0B58E6885B007000C00039201939E42F0
:1034F00039D890238A89DB001A4234D00325096920
:1035000023685B1A0293636902985D43EB0F5D19B0
:10351000019B6D1001331B18AB4200D91D005305F0
:1035200032D529003800FFF77DFF061E09D10C2394
:103530003B6040230120A28940421343A38105B090
:10354000F0BD029A2169FFF70DFCA389144A1A40C5
:1035500080231343A381029B2661F61826606561D0
:10356000019EED1AA560019BB34200D21E003200FD
:103570000399206800F06BFCA36800209B1BA360EC
:1035800023689E192660DAE72A00380000F073FCF1
:10359000061EE0D121693800FFF7FAFEC7E7C046F2
:1035A0007FFBFFFFF0B59FB0029005938B890F0062
:1035B00016001B0611D50B69002B0ED14021FFF719
:1035C00031FF38603861002805D10C23029A013898
:1035D00013601FB0F0BD40237B61002306AD6B611B
:1035E00020336B761033AB7634002378002B47D131
:1035F000A31B04930DD0A31B320039000298FFF7E0
:103600006FFF431C00D1B5E06A69049B9446634494
:103610006B612378002B00D1ACE0012200235242E1
:103620006A6002A95432521801342B60EB60AB601F
:103630001370AB65584E05222178300000F0FCFB7A
:10364000621C002820D12968CB0604D5532302AE82
:1036500020309B1918700B0704D553232B2002AE82
:103660009B19187023782A2B16D000200A21099B59
:103670002278303A092A55D9002815D0099313E049
:10368000252BB5D00134B0E70123801B8340296886
:1036900014000B432B60CDE7059B181D1B6805909C
:1036A000002B39DB0993140023782E2B0BD1637880
:1036B000621C2A2B3ED1059B02341A1D1B68059201
:1036C000002B34DB0793354E21780322300000F0C5
:1036D000B3FB002806D04023801B83402A680134B6
:1036E00013432B60217806222D48661C297600F0B2
:1036F000A3FB002846D02B4B002B2FD12968059B1C
:103700000722C90528D59B189343083305936B6995
:10371000039A9B186B6167E75B42EB6002230B43E4
:103720002B60C0E74B4301349B180120A0E7012325
:103730005B42C7E7002314000A201A006B6021785F
:103740003039092903D9002BBDD00792BBE742438A
:10375000013452180123F2E70733D5E705AB009394
:103760003A00114B2900029800E000BF0390039B30
:103770000133CCD1BB890B985B0600D429E701202B
:10378000404226E705AB00933A00074B2900029818
:1037900000F07AF8EAE7C046F8420000FE42000076
:1037A0000243000000000000E1340000F7B51500FE
:1037B00001938A680B6900900C00934200DA1300B1
:1037C00022002B6043321278002A01D001332B6093
:1037D00023689B0602D52B6802332B6006272368DB
:1037E0001F4027D0230043331B785A1E9341226881
:1037F000920630D42200019943320098089EB047C7
:10380000431C25D0062320682A68E1680340002570
:10381000042B03D18D1AEB43DB171D40A3682269EB
:10382000934201DD9B1AED180027BD4220D10020F4
:1038300010E00137E3682A689B1A9F42D2DA22001F
:103840000123193201990098089EB047431CF0D11A
:1038500001204042FEBD3020E118433108702100B4
:103860005A1C45310978A218433202331170C1E75E
:10387000220001231A3201990098089EB047431C88
:10388000E6D00137D1E70000F0B58BB006920A0010
:1038900043320793059004920A7E0C00109B6E2A17
:1038A00000D18FE017D8632A2CD008D8002A00D185
:1038B00099E0582A54D026004236327029E0642A12
:1038C00001D0692AF7D121681A68080623D5111D8D
:1038D0001960156825E0732A00D188E008D86F2A9E
:1038E00029D0702AE7D1202209680A43226003E028
:1038F000752A20D0782ADED1220078214532117035
:103900006C4A30E00E001A684236111D19601368C7
:103910003370012379E04906D9D5111D19600023C0
:10392000D55E002D03DA2D23049A6D421370624B8D
:103930000A2703932FE020681968050603D5081DA0
:1039400018600D6805E04006F9D50D68081D18607F
:10395000ADB2594B082703936F2A18D00A2716E0F7
:1039600045310A70544A03921A682168101D186084
:103970001568080622D5CB0702D5202319432160FC
:103980001027002D03D1202322689A4322602300B0
:10399000002243331A706368A360002B5CDB0422AF
:1039A000216891432160002D58D1049E002B64D0E2
:1039B0002600039B42361B7833705EE04806DAD55A
:1039C000ADB2D8E709681A68080605D5111D196057
:1039D000136862691A6006E04906F7D5111D19607F
:1039E0001368A28A1A800023049E236154E01A6897
:1039F000111D1960166800216268300000F01CFA81
:103A0000002801D0801B6060636823610023049A52
:103A1000137041E02369320006990598079DA84775
:103A2000431C43D0236800259B070FD4099BE06803
:103A300098423DDA18003BE0220001231932069932
:103A40000598079EB047431C30D00135E368099ABA
:103A50009B1A9D42F0DBE9E7002DA9D0049E2800C7
:103A60003900FFF78FF8039B013E5B5C2800337041
:103A70003900FFF701F8051EF1D1082F09D123689D
:103A8000DB0706D563682269934202DC3023013EDE
:103A90003370049B9B1B2361079B09AA00932100A1
:103AA000069B0598FFF782FE431CB3D101204042DC
:103AB0000BB0F0BD1A4300000943000070B50600CA
:103AC0000D001400002804D08369002B01D1FFF7FA
:103AD00053FB124B9C4211D17468A368013BA36055
:103AE000002B05DAA269934212DBEBB20A2B0FD04E
:103AF0002368E8B25A1C22601D7070BD084B9C42BE
:103B000001D1B468E9E7074B9C42E6D1F468E4E7E9
:103B100022002900300000F065F8EEE7B84200000E
:103B2000D842000098420000002370B5064C050002
:103B30000800236000F002FA431C03D12368002B25
:103B400000D02B6070BDC0469018002070B50C00EE
:103B50000E25495F00F0B6F9002803DB636D1B18E2
:103B6000636570BDA389024A1340A381F9E7C0468B
:103B7000FFEFFFFFF8B51F008B8905000C00160052
:103B8000DB0505D50E23C95E0022022300F040F9B3
:103B9000A389054A28001340A38132000E23E15E69
:103BA0003B0000F075F8F8BDFFEFFFFF70B50C00AB
:103BB0000E25495F00F02CF9A389421C03D1054A68
:103BC0001340A38170BD802252011343A38160651D
:103BD000F8E7C046FFEFFFFF10B50E23C95E00F007
:103BE000E1F810BDF8B505000E001400002804D05F
:103BF0008369002B01D1FFF7BFFA224B9C422DD1E4
:103C00006C68A369A360A3891B0731D52369002BC6
:103C10002ED023682269F7B2981A6369F6B29842E7
:103C200005DB21002800FFF739FA002826D1A36818
:103C30000130013BA36023685A1C22601F70636936
:103C4000984204D0A389DB071AD50A2E18D1210087
:103C50002800FFF723FA002812D00FE00A4B9C42FD
:103C600001D1AC68CDE7094B9C42CAD1EC68C8E7EA
:103C70002100280000F020F80028CAD00126764252
:103C80003000F8BDB8420000D84200009842000061
:103C900070B50500080011000022064C22601A00D1
:103CA000FDF7B0FD431C03D12368002B00D02B602F
:103CB00070BDC04690180020364B70B51D680600D8
:103CC0000C00002D05D0AB69002B02D12800FFF7B6
:103CD00053FA314B9C420FD16C680C23E25E93B2D5
:103CE00019072DD4D90611D40923012033603733A5
:103CF0001343A381404270BD284B9C4201D1AC6864
:103D0000EBE7274B9C42E8D1EC68E6E75B0713D56D
:103D1000616B002908D023004433994202D030005F
:103D2000FFF736FB002363632422A3899343A38117
:103D300000236360236923600823A2891343A381BE
:103D40002369002B0BD1A0218022A3898900920036
:103D50000B40934203D021003000FFF7CBFA012340
:103D6000A289134011D00023A36063695B42A36161
:103D7000002023698342BED10C23E25E1306BAD52C
:103D800040231343A3810138B5E7920700D4636948
:103D9000A360EDE700000020B8420000D842000018
:103DA00098420000002370B5064C0500080023600F
:103DB00000F0A4F8431C03D12368002B00D02B6033
:103DC00070BDC04690180020002370B5064C050059
:103DD00008001100236000F099F8431C03D1236808
:103DE000002B00D02B6070BD90180020002370B510
:103DF000064C05000800236000F090F8431C03D136
:103E00002368002B00D02B6070BDC04690180020A6
:103E100070B50500080011000022064C22601A004F
:103E200000F084F8431C03D12368002B00D02B60E2
:103E300070BDC04690180020C9B28218904201D1CE
:103E40000020704703788B42FBD00130F6E710B5B5
:103E5000884202D98B18984208D300239A4207D08F
:103E6000CC5CC4540133F9E78B5C8354013AFBD238
:103E700010BD70477047F8B507000D001600002907
:103E800005D11100FFF7CEFA04002000F8BD002A8A
:103E900003D1FFF77DFA3400F7E700F027F82C0094
:103EA0008642F2D931003800FFF7BCFA041EECD08C
:103EB00029003200FEF756FF29003800FFF768FAA4
:103EC000E3E7000070B50500080011000022064C71
:103ED00022601A00FDF7A4FC431C03D12368002BC9
:103EE00000D02B6070BDC046901800200B1F1B68CF
:103EF000181F002B01DA0B58C018704758220120F8
:103F0000014B40421A60704790180020582201204F
:103F1000014B40421A607047901800205822024B13
:103F200000201A607047C0469018002058220120D7
:103F3000014B40421A60704790180020044A1368F1
:103F4000002B03D01818106018007047014BF9E7D8
:103F50006009002098180020F8B5C046F8BC08BCDD
:103F60009E467047F8B5C046F8BC08BC9E467047F0
:103F7000040000200B09080A0000000000E0D7013F
:103F800000B000400B0004000A554152545F434FFB
:103F90004D4D5F45525220253038780A0000000010
:103FA000554152545F4649464F5F4552524F520069
:103FB000010000000000000001020000FA00030000
:103FC00000010220000000000A0A0A6E5246353144
:103FD0002055415254206272696467652072756E83
:103FE0006E696E670A000000256C75204469736372
:103FF0006F6E6E65637465640A000000256C752041
:1040000054585F5245515545535445445F444154BB
:1040100041206C656E677468206973206C657373EA
:10402000207468616E20340A00000000256C752041
:1040300054585F57524954455F5355434345535372
:1040400046554C206C656E677468206973206E6FEE
:104050007420340A00000000256C752054585F431A
:104060004F50595F5355434345535346554C206C6D
:10407000656E677468206973206E6F7420370A005C
:10408000256C752054585F465245455F544F5F4339
:104090004F4E4E454354202861636B290A000000AF
:1040A00054585F465245455F544F5F434F4E4E450F
:1040B0004354206C656E677468206973206E6F745A
:1040C0002032370A000000004E4F545F434F4E4EDF
:1040D00045435445443A20556E68616E646C65648E
:1040E000207061636B657420307825782C206C65B6
:1040F0006E6774682025640A00000000256C752036
:10410000212121212120444953434F4E4E45435400
:1041100045442044554520544F2054494D454F5562
:10412000540A0000256C75202121212121204449B9
:1041300053434F4E4E454354454420445552494EF7
:104140004720434F4E4E454354494F4E205048411F
:1041500053452044554520544F2054494D454F5513
:10416000540A00004C427263780000004346475FE7
:10417000524551554553545F544F5F434F4E4E4542
:104180004354206C656E677468206973206E6F7489
:104190002031380A000000004552524F52204E6F25
:1041A00020696E7075747320676976656E0A000009
:1041B0004552524F52206E72665F6573625F73653F
:1041C000745F626173655F616464726573735F30AD
:1041D0003A20256C750A00004552524F52206E72EB
:1041E000665F6573625F7365745F70726566697838
:1041F00065733A20256C750A000000004552524F45
:1042000052206E72665F6573625F7365745F72667B
:104210005F6368616E6E656C3A20256C750A0000FC
:104220004552524F52206E72665F6573625F7374BF
:104230006172745F72783A20256C750A0000000084
:104240001F00030200000000040000030000000043
:10425000090000000B0000000A0000000800000038
:10426000000000000000000000E0D7010100000095
:104270000090004000040000090000000B00000056
:104280000A0000000800000000000000000000001C
:1042900000E0D70101000000000000000000000065
:1042A000000000000000000000000000000000000E
:1042B00000000000000000000000000000000000FE
:1042C00000000000000000000000000000000000EE
:1042D00000000000000000000000000000000000DE
:1042E00000000000000000000000000000000000CE
:1042F0000000000000000000232D302B2000686C1F
:104300004C006566674546470030313233343536F8
:104310003738394142434445460030313233343531
:10432000363738396162636465660000000000005A
:08433000F0BDFF7F0100000059
:104338000400002000000000B8420000D84200003D
:10434800984200000000000000000000000000008B
:104358000000000000000000000000000000000055
:104368000000000000000000000000000000000045
:104378000000000000000000000000000000000035
:104388000000000000000000000000000000000025
:1043980000000000E7E7E7E7C2C2C2C2E7C2C3C441
:1043A800C5C6C7C80805FF02E9000000C100000033
:0443B8000000000001
:0400000300002A2DA2
:00000001FF
